{
  "_format": "hh-sol-artifact-1",
  "contractName": "AaveV2DepositBridge",
  "sourceName": "contracts/bridges/trusted/AaveV2DepositBridge/AaveV2DepositBridge.sol",
  "abi": [
    {
      "anonymous": false,
      "inputs": [
        {
          "indexed": false,
          "internalType": "address",
          "name": "assetIn",
          "type": "address"
        },
        {
          "indexed": false,
          "internalType": "address",
          "name": "assetOut",
          "type": "address"
        },
        {
          "indexed": false,
          "internalType": "uint256",
          "name": "amount",
          "type": "uint256"
        }
      ],
      "name": "INDEXPOOL_AAVEV2_DEPOSIT",
      "type": "event"
    },
    {
      "anonymous": false,
      "inputs": [
        {
          "indexed": false,
          "internalType": "address",
          "name": "assetIn",
          "type": "address"
        },
        {
          "indexed": false,
          "internalType": "address",
          "name": "assetOut",
          "type": "address"
        },
        {
          "indexed": false,
          "internalType": "uint256",
          "name": "amount",
          "type": "uint256"
        },
        {
          "indexed": false,
          "internalType": "address",
          "name": "rewardAsset",
          "type": "address"
        },
        {
          "indexed": false,
          "internalType": "uint256",
          "name": "rewardAmount",
          "type": "uint256"
        }
      ],
      "name": "INDEXPOOL_AAVEV2_WITHDRAW",
      "type": "event"
    },
    {
      "inputs": [
        {
          "internalType": "address",
          "name": "assetIn",
          "type": "address"
        },
        {
          "internalType": "uint256",
          "name": "percentageIn",
          "type": "uint256"
        }
      ],
      "name": "deposit",
      "outputs": [],
      "stateMutability": "nonpayable",
      "type": "function"
    },
    {
      "inputs": [
        {
          "internalType": "address",
          "name": "assetOut",
          "type": "address"
        },
        {
          "internalType": "uint256",
          "name": "percentageOut",
          "type": "uint256"
        }
      ],
      "name": "withdraw",
      "outputs": [],
      "stateMutability": "nonpayable",
      "type": "function"
    }
  ],
  "bytecode": "0x608060405234801561001057600080fd5b50610b29806100206000396000f3fe608060405234801561001057600080fd5b50600436106100365760003560e01c806347e7ef241461003b578063f3fef3a314610050575b600080fd5b61004e610049366004610849565b610063565b005b61004e61005e366004610849565b610380565b6040516370a0823160e01b8152306004820152738dff5e27ea6b7ac08ebfdf9eb090f32ee9a30fcf90600090620186a09084906001600160a01b038716906370a082319060240160206040518083038186803b1580156100c257600080fd5b505afa1580156100d6573d6000803e3d6000fd5b505050506040513d601f19601f820116820180604052508101906100fa9190610984565b6101049190610a98565b61010e9190610a76565b60405163095ea7b360e01b8152738dff5e27ea6b7ac08ebfdf9eb090f32ee9a30fcf6004820152600060248201529091506001600160a01b0385169063095ea7b390604401602060405180830381600087803b15801561016d57600080fd5b505af1158015610181573d6000803e3d6000fd5b505050506040513d601f19601f820116820180604052508101906101a59190610875565b5060405163095ea7b360e01b8152738dff5e27ea6b7ac08ebfdf9eb090f32ee9a30fcf6004820152602481018290526001600160a01b0385169063095ea7b390604401602060405180830381600087803b15801561020257600080fd5b505af1158015610216573d6000803e3d6000fd5b505050506040513d601f19601f8201168201806040525081019061023a9190610875565b5060405163e8eda9df60e01b81526001600160a01b038581166004830152602482018390523060448301526000606483015283169063e8eda9df90608401600060405180830381600087803b15801561029257600080fd5b505af11580156102a6573d6000803e3d6000fd5b50506040516335ea6a7560e01b81526001600160a01b03878116600483015260009350851691506335ea6a75906024016101806040518083038186803b1580156102ef57600080fd5b505afa158015610303573d6000803e3d6000fd5b505050506040513d601f19601f820116820180604052508101906103279190610897565b60e00151604080516001600160a01b038089168252831660208201529081018490529091507f5e469c7cba28a05d4def72c6fd33bee2bdf9965ddca73abb2aa29ee8561ed81a9060600160405180910390a15050505050565b6040516335ea6a7560e01b81526001600160a01b038316600482015273357d51124f59836ded84c8a1730d72b749d8bc2390738dff5e27ea6b7ac08ebfdf9eb090f32ee9a30fcf9060009082906335ea6a75906024016101806040518083038186803b1580156103ef57600080fd5b505afa158015610403573d6000803e3d6000fd5b505050506040513d601f19601f820116820180604052508101906104279190610897565b60e00151905060008415610555576040516370a0823160e01b8152306004820152620186a09086906001600160a01b038516906370a082319060240160206040518083038186803b15801561047b57600080fd5b505afa15801561048f573d6000803e3d6000fd5b505050506040513d601f19601f820116820180604052508101906104b39190610984565b6104bd9190610a98565b6104c79190610a76565b604051631a4ca37b60e21b81526001600160a01b03888116600483015260248201839052306044830152919250908416906369328dec90606401602060405180830381600087803b15801561051b57600080fd5b505af115801561052f573d6000803e3d6000fd5b505050506040513d601f19601f820116820180604052508101906105539190610984565b505b60408051600180825281830190925260009160208083019080368337019050509050828160008151811061058b5761058b610ac5565b6001600160a01b0392831660209182029290920101526040516345accf9360e11b8152600091871690638b599f26906105ca90859030906004016109e1565b60206040518083038186803b1580156105e257600080fd5b505afa1580156105f6573d6000803e3d6000fd5b505050506040513d601f19601f8201168201806040525081019061061a9190610984565b90506000866001600160a01b0316633111e7b38484306040518463ffffffff1660e01b815260040161064e93929190610a0b565b602060405180830381600087803b15801561066857600080fd5b505af115801561067c573d6000803e3d6000fd5b505050506040513d601f19601f820116820180604052508101906106a09190610984565b90506000876001600160a01b03166399248ea76040518163ffffffff1660e01b815260040160206040518083038186803b1580156106dd57600080fd5b505afa1580156106f1573d6000803e3d6000fd5b505050506040513d601f19601f820116820180604052508101906107159190610825565b604080516001600160a01b03808a168252808e1660208301529181018890529082166060820152608081018490529091507fdbb60c8c1694e48dfde2531d333ad38faa7d4f5bd45b4361225a539216a478f69060a00160405180910390a150505050505050505050565b805161078a81610adb565b919050565b6000602082840312156107a157600080fd5b6040516020810181811067ffffffffffffffff821117156107d257634e487b7160e01b600052604160045260246000fd5b6040529151825250919050565b80516fffffffffffffffffffffffffffffffff8116811461078a57600080fd5b805164ffffffffff8116811461078a57600080fd5b805160ff8116811461078a57600080fd5b60006020828403121561083757600080fd5b815161084281610adb565b9392505050565b6000806040838503121561085c57600080fd5b823561086781610adb565b946020939093013593505050565b60006020828403121561088757600080fd5b8151801515811461084257600080fd5b600061018082840312156108aa57600080fd5b6108b2610a3e565b6108bc848461078f565b81526108ca602084016107df565b60208201526108db604084016107df565b60408201526108ec606084016107df565b60608201526108fd608084016107df565b608082015261090e60a084016107df565b60a082015261091f60c084016107ff565b60c082015261093060e0840161077f565b60e082015261010061094381850161077f565b9082015261012061095584820161077f565b9082015261014061096784820161077f565b90820152610160610979848201610814565b908201529392505050565b60006020828403121561099657600080fd5b5051919050565b600081518084526020808501945080840160005b838110156109d65781516001600160a01b0316875295820195908201906001016109b1565b509495945050505050565b6040815260006109f4604083018561099d565b905060018060a01b03831660208301529392505050565b606081526000610a1e606083018661099d565b6020830194909452506001600160a01b0391909116604090910152919050565b604051610180810167ffffffffffffffff81118282101715610a7057634e487b7160e01b600052604160045260246000fd5b60405290565b600082610a9357634e487b7160e01b600052601260045260246000fd5b500490565b6000816000190483118215151615610ac057634e487b7160e01b600052601160045260246000fd5b500290565b634e487b7160e01b600052603260045260246000fd5b6001600160a01b0381168114610af057600080fd5b5056fea264697066735822122096ac384e437e4c1a8f49cfc58d15a499c92e5fc16f29df260e7caa0452e26dc164736f6c63430008060033",
  "linkReferences": {},
  "deployedLinkReferences": {}
}