{
  "_format": "hh-sol-artifact-1",
  "contractName": "AutofarmDepositBridge",
  "sourceName": "contracts/bridges/trusted/AutofarmDepositBridge/AutofarmDepositBridge.sol",
  "abi": [
    {
      "anonymous": false,
      "inputs": [
        {
          "indexed": false,
          "internalType": "address",
          "name": "vaultAddress",
          "type": "address"
        },
        {
          "indexed": false,
          "internalType": "address",
          "name": "assetIn",
          "type": "address"
        },
        {
          "indexed": false,
          "internalType": "uint256",
          "name": "amount",
          "type": "uint256"
        }
      ],
      "name": "INDEXPOOL_AUTOFARM_DEPOSIT",
      "type": "event"
    },
    {
      "anonymous": false,
      "inputs": [
        {
          "indexed": false,
          "internalType": "address",
          "name": "vaultAddress",
          "type": "address"
        },
        {
          "indexed": false,
          "internalType": "address",
          "name": "assetOut",
          "type": "address"
        },
        {
          "indexed": false,
          "internalType": "uint256",
          "name": "amount",
          "type": "uint256"
        },
        {
          "indexed": false,
          "internalType": "uint256",
          "name": "wMaticReward",
          "type": "uint256"
        },
        {
          "indexed": false,
          "internalType": "uint256",
          "name": "pAutoReward",
          "type": "uint256"
        }
      ],
      "name": "INDEXPOOL_AUTOFARM_WITHDRAW",
      "type": "event"
    },
    {
      "inputs": [
        {
          "internalType": "uint256",
          "name": "poolId",
          "type": "uint256"
        },
        {
          "internalType": "uint256",
          "name": "percentageIn",
          "type": "uint256"
        }
      ],
      "name": "deposit",
      "outputs": [],
      "stateMutability": "nonpayable",
      "type": "function"
    },
    {
      "inputs": [
        {
          "internalType": "uint256",
          "name": "poolId",
          "type": "uint256"
        },
        {
          "internalType": "uint256",
          "name": "percentageOut",
          "type": "uint256"
        }
      ],
      "name": "withdraw",
      "outputs": [],
      "stateMutability": "nonpayable",
      "type": "function"
    }
  ],
  "bytecode": "0x608060405234801561001057600080fd5b50610918806100206000396000f3fe608060405234801561001057600080fd5b50600436106100365760003560e01c8063441a3e701461003b578063e2bbb15814610050575b600080fd5b61004e61004936600461083a565b610063565b005b61004e61005e36600461083a565b610495565b604051631526fe2760e01b8152600481018390527389d065572136814230a55ddeeddec9df34eb0b769060009081908390631526fe279060240160a060405180830381600087803b1580156100b757600080fd5b505af11580156100cb573d6000803e3d6000fd5b505050506040513d601f19601f820116820180604052508101906100ef91906107c9565b6040516370a0823160e01b81523060048201529496509450600093730d500b1d8e8ef31e21c99d1db9a6444d3adf127093506370a082319250602401905060206040518083038186803b15801561014557600080fd5b505afa158015610159573d6000803e3d6000fd5b505050506040513d601f19601f8201168201806040525081019061017d9190610821565b6040516370a0823160e01b8152306004820152909150600090737f426f6dc648e50464a0392e60e1bb465a67e9cf906370a082319060240160206040518083038186803b1580156101cd57600080fd5b505afa1580156101e1573d6000803e3d6000fd5b505050506040513d601f19601f820116820180604052508101906102059190610821565b604051631ee136bb60e21b815260048101899052306024820152909150600090620186a09088906001600160a01b03891690637b84daec9060440160206040518083038186803b15801561025857600080fd5b505afa15801561026c573d6000803e3d6000fd5b505050506040513d601f19601f820116820180604052508101906102909190610821565b61029a919061087e565b6102a4919061085c565b604051630441a3e760e41b8152600481018a9052602481018290529091506001600160a01b0387169063441a3e7090604401600060405180830381600087803b1580156102f057600080fd5b505af1158015610304573d6000803e3d6000fd5b50506040516370a0823160e01b815230600482015260009250859150730d500b1d8e8ef31e21c99d1db9a6444d3adf1270906370a082319060240160206040518083038186803b15801561035757600080fd5b505afa15801561036b573d6000803e3d6000fd5b505050506040513d601f19601f8201168201806040525081019061038f9190610821565b610399919061089d565b6040516370a0823160e01b81523060048201529091506000908490737f426f6dc648e50464a0392e60e1bb465a67e9cf906370a082319060240160206040518083038186803b1580156103eb57600080fd5b505afa1580156103ff573d6000803e3d6000fd5b505050506040513d601f19601f820116820180604052508101906104239190610821565b61042d919061089d565b604080516001600160a01b03808a1682528a16602082015290810185905260608101849052608081018290529091507f323492fd19939770dd55e5e3b4205f96c5a717d7ea1c7ec8f92a3bdf7448cbdc9060a00160405180910390a150505050505050505050565b604051631526fe2760e01b8152600481018390527389d065572136814230a55ddeeddec9df34eb0b769060009081908390631526fe279060240160a060405180830381600087803b1580156104e957600080fd5b505af11580156104fd573d6000803e3d6000fd5b505050506040513d601f19601f8201168201806040525081019061052191906107c9565b6040516370a0823160e01b81523060048201529496509450600093620186a093508892506001600160a01b03871691506370a082319060240160206040518083038186803b15801561057257600080fd5b505afa158015610586573d6000803e3d6000fd5b505050506040513d601f19601f820116820180604052508101906105aa9190610821565b6105b4919061087e565b6105be919061085c565b60405163095ea7b360e01b81527389d065572136814230a55ddeeddec9df34eb0b766004820152600060248201529091506001600160a01b0384169063095ea7b390604401602060405180830381600087803b15801561061d57600080fd5b505af1158015610631573d6000803e3d6000fd5b505050506040513d601f19601f8201168201806040525081019061065591906107a0565b5060405163095ea7b360e01b81527389d065572136814230a55ddeeddec9df34eb0b766004820152602481018290526001600160a01b0384169063095ea7b390604401602060405180830381600087803b1580156106b257600080fd5b505af11580156106c6573d6000803e3d6000fd5b505050506040513d601f19601f820116820180604052508101906106ea91906107a0565b50604051631c57762b60e31b815260048101879052602481018290526001600160a01b0385169063e2bbb15890604401600060405180830381600087803b15801561073457600080fd5b505af1158015610748573d6000803e3d6000fd5b5050604080516001600160a01b038087168252871660208201529081018490527f8d68c75c22f7d956a36fc26b9515de1c591a61fa4d722d1d910feb1a133378009250606001905060405180910390a1505050505050565b6000602082840312156107b257600080fd5b815180151581146107c257600080fd5b9392505050565b600080600080600060a086880312156107e157600080fd5b85516107ec816108ca565b809550506020860151935060408601519250606086015191506080860151610813816108ca565b809150509295509295909350565b60006020828403121561083357600080fd5b5051919050565b6000806040838503121561084d57600080fd5b50508035926020909101359150565b60008261087957634e487b7160e01b600052601260045260246000fd5b500490565b6000816000190483118215151615610898576108986108b4565b500290565b6000828210156108af576108af6108b4565b500390565b634e487b7160e01b600052601160045260246000fd5b6001600160a01b03811681146108df57600080fd5b5056fea26469706673582212202491ba9ab1b277882e4fe21710443c23926b64f9de48c0fd83897ced6edd0e3a64736f6c63430008060033",
  "linkReferences": {},
  "deployedLinkReferences": {}
}