{
  "_format": "hh-sol-artifact-1",
  "contractName": "BalancerLiquidityBridge",
  "sourceName": "contracts/bridges/Balancer/BalancerLiquidityBridge.sol",
  "abi": [
    {
      "anonymous": false,
      "inputs": [
        {
          "indexed": false,
          "internalType": "bytes32",
          "name": "poolId",
          "type": "bytes32"
        },
        {
          "indexed": false,
          "internalType": "uint256[]",
          "name": "amountsIn",
          "type": "uint256[]"
        },
        {
          "indexed": false,
          "internalType": "uint256",
          "name": "liquidity",
          "type": "uint256"
        }
      ],
      "name": "DEFIBASKET_BALANCER_ADD_LIQUIDITY",
      "type": "event"
    },
    {
      "anonymous": false,
      "inputs": [
        {
          "indexed": false,
          "internalType": "bytes32",
          "name": "poolId",
          "type": "bytes32"
        },
        {
          "indexed": false,
          "internalType": "address[]",
          "name": "tokens",
          "type": "address[]"
        },
        {
          "indexed": false,
          "internalType": "uint256[]",
          "name": "tokenAmountsOut",
          "type": "uint256[]"
        },
        {
          "indexed": false,
          "internalType": "uint256",
          "name": "liquidity",
          "type": "uint256"
        }
      ],
      "name": "DEFIBASKET_BALANCER_REMOVE_LIQUIDITY",
      "type": "event"
    },
    {
      "inputs": [
        {
          "internalType": "address",
          "name": "poolAddress",
          "type": "address"
        },
        {
          "internalType": "address[]",
          "name": "tokens",
          "type": "address[]"
        },
        {
          "internalType": "uint256[]",
          "name": "percentages",
          "type": "uint256[]"
        },
        {
          "internalType": "uint256",
          "name": "minimumBPTout",
          "type": "uint256"
        }
      ],
      "name": "addLiquidity",
      "outputs": [],
      "stateMutability": "nonpayable",
      "type": "function"
    },
    {
      "inputs": [
        {
          "components": [
            {
              "internalType": "uint256",
              "name": "distributionId",
              "type": "uint256"
            },
            {
              "internalType": "uint256",
              "name": "balance",
              "type": "uint256"
            },
            {
              "internalType": "address",
              "name": "distributor",
              "type": "address"
            },
            {
              "internalType": "uint256",
              "name": "tokenIndex",
              "type": "uint256"
            },
            {
              "internalType": "bytes32[]",
              "name": "merkleProof",
              "type": "bytes32[]"
            }
          ],
          "internalType": "struct IMerkleOrchard.Claim[]",
          "name": "claims",
          "type": "tuple[]"
        },
        {
          "internalType": "address[]",
          "name": "tokens",
          "type": "address[]"
        }
      ],
      "name": "claimRewards",
      "outputs": [],
      "stateMutability": "nonpayable",
      "type": "function"
    },
    {
      "inputs": [
        {
          "internalType": "address",
          "name": "poolAddress",
          "type": "address"
        },
        {
          "internalType": "uint256",
          "name": "percentageOut",
          "type": "uint256"
        },
        {
          "internalType": "uint256[]",
          "name": "minAmountsOut",
          "type": "uint256[]"
        }
      ],
      "name": "removeLiquidity",
      "outputs": [],
      "stateMutability": "nonpayable",
      "type": "function"
    }
  ],
  "bytecode": "0x608060405234801561001057600080fd5b506112ff806100206000396000f3fe608060405234801561001057600080fd5b50600436106100415760003560e01c8063c83abb8514610046578063c8d35f221461005b578063d668319b1461006e575b600080fd5b610059610054366004610c7b565b610081565b005b610059610069366004610bf0565b610594565b61005961007c366004610dac565b610a98565b6040516370a0823160e01b8152306004820152600090620186a09085906001600160a01b038816906370a082319060240160206040518083038186803b1580156100ca57600080fd5b505afa1580156100de573d6000803e3d6000fd5b505050506040513d601f19601f820116820180604052508101906101029190610e2e565b61010c919061121b565b61011691906111f9565b90506000856001600160a01b03166338fff2d06040518163ffffffff1660e01b815260040160206040518083038186803b15801561015357600080fd5b505afa158015610167573d6000803e3d6000fd5b505050506040513d601f19601f8201168201806040525081019061018b9190610e2e565b604051631f29a8cd60e31b81526004810182905290915060009073ba12222222228d8ba445958a75a0704d566bf2c89063f94d46689060240160006040518083038186803b1580156101dc57600080fd5b505afa1580156101f0573d6000803e3d6000fd5b505050506040513d6000823e601f3d908101601f191682016040526102189190810190610cd7565b5050805190915060008167ffffffffffffffff81111561023a5761023a61127d565b604051908082528060200260200182016040528015610263578160200160208202803683370190505b50905060008267ffffffffffffffff8111156102815761028161127d565b6040519080825280602002602001820160405280156102aa578160200160208202803683370190505b50905060005b83811015610372578481815181106102ca576102ca611267565b60209081029190910101516040516370a0823160e01b81523060048201526001600160a01b03909116906370a082319060240160206040518083038186803b15801561031557600080fd5b505afa158015610329573d6000803e3d6000fd5b505050506040513d601f19601f8201168201806040525081019061034d9190610e2e565b83828151811061035f5761035f611267565b60209081029190910101526001016102b0565b506000600187604051602001610389929190611184565b6040516020818303038152906040529050600060405180608001604052808781526020018b8b8080602002602001604051908101604052809392919081815260200183836020028082843760009201829052509385525050506020820185905260409182015251638bdb391360e01b815290915073ba12222222228d8ba445958a75a0704d566bf2c890638bdb39139061042d908a903090819087906004016110e2565b600060405180830381600087803b15801561044757600080fd5b505af115801561045b573d6000803e3d6000fd5b5050505060005b858110156105485784818151811061047c5761047c611267565b602002602001015187828151811061049657610496611267565b60209081029190910101516040516370a0823160e01b81523060048201526001600160a01b03909116906370a082319060240160206040518083038186803b1580156104e157600080fd5b505afa1580156104f5573d6000803e3d6000fd5b505050506040513d601f19601f820116820180604052508101906105199190610e2e565b610523919061123a565b84828151811061053557610535611267565b6020908102919091010152600101610462565b507fdfb17481cf836798fd6ce407a41b55071fecdda46ea9b0e0d378f1ef39b2aeb48787858b60405161057e949392919061111e565b60405180910390a1505050505050505050505050565b8360008167ffffffffffffffff8111156105b0576105b061127d565b6040519080825280602002602001820160405280156105d9578160200160208202803683370190505b50905060005b8281101561088457620186a08686838181106105fd576105fd611267565b9050602002013589898481811061061657610616611267565b905060200201602081019061062b9190610bcc565b6040516370a0823160e01b81523060048201526001600160a01b0391909116906370a082319060240160206040518083038186803b15801561066c57600080fd5b505afa158015610680573d6000803e3d6000fd5b505050506040513d601f19601f820116820180604052508101906106a49190610e2e565b6106ae919061121b565b6106b891906111f9565b8282815181106106ca576106ca611267565b6020026020010181815250508787828181106106e8576106e8611267565b90506020020160208101906106fd9190610bcc565b60405163095ea7b360e01b815273ba12222222228d8ba445958a75a0704d566bf2c86004820152600060248201526001600160a01b03919091169063095ea7b390604401602060405180830381600087803b15801561075b57600080fd5b505af115801561076f573d6000803e3d6000fd5b505050506040513d601f19601f820116820180604052508101906107939190610e0c565b508787828181106107a6576107a6611267565b90506020020160208101906107bb9190610bcc565b6001600160a01b031663095ea7b373ba12222222228d8ba445958a75a0704d566bf2c88484815181106107f0576107f0611267565b60200260200101516040518363ffffffff1660e01b81526004016108299291906001600160a01b03929092168252602082015260400190565b602060405180830381600087803b15801561084357600080fd5b505af1158015610857573d6000803e3d6000fd5b505050506040513d601f19601f8201168201806040525081019061087b9190610e0c565b506001016105df565b5060006001828560405160200161089d9392919061119b565b60408051601f1981840301815260a060208b028085018201909352608084018b8152919450600093928392918d918d918291908601908490808284376000920182905250938552505050602080830187905260408084018790526060909301829052825163038fff2d60e41b8152925193945090926001600160a01b038e16926338fff2d0926004808301939192829003018186803b15801561093f57600080fd5b505afa158015610953573d6000803e3d6000fd5b505050506040513d601f19601f820116820180604052508101906109779190610e2e565b60405163172b958560e31b815290915073ba12222222228d8ba445958a75a0704d566bf2c89063b95cac28906109b79084903090819088906004016110e2565b600060405180830381600087803b1580156109d157600080fd5b505af11580156109e5573d6000803e3d6000fd5b50506040516370a0823160e01b8152306004820152600092506001600160a01b038e1691506370a082319060240160206040518083038186803b158015610a2b57600080fd5b505afa158015610a3f573d6000803e3d6000fd5b505050506040513d601f19601f82011682018060405250810190610a639190610e2e565b90507ffda4dde6faa6cc061a73092aa7b577cd30a9d41f5e98e4d2064d2d16b97f8c5d82868360405161057e9392919061115b565b60405162ad8c0560e61b8152730f3e0c4218b7b0108a3643cfe9d3ec0d4f57c54e90632b63014090610ad69030908890889088908890600401610fcb565b600060405180830381600087803b158015610af057600080fd5b505af1158015610b04573d6000803e3d6000fd5b5050505050505050565b60008083601f840112610b2057600080fd5b50813567ffffffffffffffff811115610b3857600080fd5b6020830191508360208260051b8501011115610b5357600080fd5b9250929050565b600082601f830112610b6b57600080fd5b81516020610b80610b7b836111d5565b6111a4565b80838252828201915082860187848660051b8901011115610ba057600080fd5b60005b85811015610bbf57815184529284019290840190600101610ba3565b5090979650505050505050565b600060208284031215610bde57600080fd5b8135610be9816112b4565b9392505050565b60008060008060008060808789031215610c0957600080fd5b8635610c14816112b4565b9550602087013567ffffffffffffffff80821115610c3157600080fd5b610c3d8a838b01610b0e565b90975095506040890135915080821115610c5657600080fd5b50610c6389828a01610b0e565b979a9699509497949695606090950135949350505050565b60008060008060608587031215610c9157600080fd5b8435610c9c816112b4565b935060208501359250604085013567ffffffffffffffff811115610cbf57600080fd5b610ccb87828801610b0e565b95989497509550505050565b600080600060608486031215610cec57600080fd5b835167ffffffffffffffff80821115610d0457600080fd5b818601915086601f830112610d1857600080fd5b81516020610d28610b7b836111d5565b8083825282820191508286018b848660051b8901011115610d4857600080fd5b600096505b84871015610d74578051610d60816112b4565b835260019690960195918301918301610d4d565b5091890151919750909350505080821115610d8e57600080fd5b50610d9b86828701610b5a565b925050604084015190509250925092565b60008060008060408587031215610dc257600080fd5b843567ffffffffffffffff80821115610dda57600080fd5b610de688838901610b0e565b90965094506020870135915080821115610dff57600080fd5b50610ccb87828801610b0e565b600060208284031215610e1e57600080fd5b81518015158114610be957600080fd5b600060208284031215610e4057600080fd5b5051919050565b8183526000602080850194508260005b85811015610e85578135610e6a816112b4565b6001600160a01b031687529582019590820190600101610e57565b509495945050505050565b600081518084526020808501945080840160005b83811015610e855781516001600160a01b031687529582019590820190600101610ea4565b81835260006001600160fb1b03831115610ee257600080fd5b8260051b8083602087013760009401602001938452509192915050565b600081518084526020808501945080840160005b83811015610e8557815187529582019590820190600101610f13565b6000815160808452610f446080850182610e90565b905060208084015185830382870152610f5d8382610eff565b92505060408401518583036040870152805180845260005b81811015610f90578281018401518582018501528301610f75565b81811115610fa15760008483870101525b5060608601519150610fb7606088018315159052565b601f01601f19169290920101949350505050565b6001600160a01b0386811682526060602080840182905283820187905260009260809182860160058a901b870184018b875b8c8110156110bc57898303607f190184528135368f9003609e1901811261102357600080fd5b8e0180358452858101358685015260a0604080830135611042816112b4565b891690860152818a01358a8601528882013536839003601e1901811261106757600080fd5b8201803567ffffffffffffffff81111561108057600080fd5b8060051b360384131561109257600080fd5b828b8801526110a6838801828b8501610ec9565b9789019796505050928601925050600101610ffd565b505087810360408901526110d1818a8c610e47565b9d9c50505050505050505050505050565b8481526001600160a01b0384811660208301528316604082015260806060820181905260009061111490830184610f2f565b9695505050505050565b8481526080602082015260006111376080830186610e90565b82810360408401526111498186610eff565b91505082606083015295945050505050565b8381526060602082015260006111746060830185610eff565b9050826040830152949350505050565b6040810161119184611293565b9281526020015290565b61115b84611293565b604051601f8201601f1916810167ffffffffffffffff811182821017156111cd576111cd61127d565b604052919050565b600067ffffffffffffffff8211156111ef576111ef61127d565b5060051b60200190565b60008261121657634e487b7160e01b600052601260045260246000fd5b500490565b600081600019048311821515161561123557611235611251565b500290565b60008282101561124c5761124c611251565b500390565b634e487b7160e01b600052601160045260246000fd5b634e487b7160e01b600052603260045260246000fd5b634e487b7160e01b600052604160045260246000fd5b600481106112b157634e487b7160e01b600052602160045260246000fd5b50565b6001600160a01b03811681146112b157600080fdfea264697066735822122017f4a5acd9efda33a866abaebd9813f41eb7def2d4461ef15c507ad834bf9c1564736f6c63430008060033",
  "linkReferences": {},
  "deployedLinkReferences": {}
}