{
  "_format": "hh-sol-artifact-1",
  "contractName": "QuickswapLiquidityBridge",
  "sourceName": "contracts/bridges/trusted/QuickswapLiquidityBridge/QuickswapLiquidityBridge.sol",
  "abi": [
    {
      "anonymous": false,
      "inputs": [
        {
          "indexed": false,
          "internalType": "address[]",
          "name": "assetIn",
          "type": "address[]"
        },
        {
          "indexed": false,
          "internalType": "uint256[]",
          "name": "amountIn",
          "type": "uint256[]"
        },
        {
          "indexed": false,
          "internalType": "address",
          "name": "lpToken",
          "type": "address"
        },
        {
          "indexed": false,
          "internalType": "uint256",
          "name": "liquidity",
          "type": "uint256"
        }
      ],
      "name": "INDEXPOOL_UNISWAPV2_ADD_LIQUIDITY",
      "type": "event"
    },
    {
      "anonymous": false,
      "inputs": [
        {
          "indexed": false,
          "internalType": "address[]",
          "name": "tokens",
          "type": "address[]"
        },
        {
          "indexed": false,
          "internalType": "uint256[]",
          "name": "amountOut",
          "type": "uint256[]"
        },
        {
          "indexed": false,
          "internalType": "address",
          "name": "lpToken",
          "type": "address"
        },
        {
          "indexed": false,
          "internalType": "uint256",
          "name": "liquidity",
          "type": "uint256"
        }
      ],
      "name": "INDEXPOOL_UNISWAPV2_REMOVE_LIQUIDITY",
      "type": "event"
    },
    {
      "inputs": [
        {
          "internalType": "address[]",
          "name": "tokens",
          "type": "address[]"
        },
        {
          "internalType": "uint256[]",
          "name": "percentages",
          "type": "uint256[]"
        },
        {
          "internalType": "uint256[]",
          "name": "minAmounts",
          "type": "uint256[]"
        }
      ],
      "name": "addLiquidity",
      "outputs": [],
      "stateMutability": "nonpayable",
      "type": "function"
    },
    {
      "inputs": [
        {
          "internalType": "address[]",
          "name": "tokens",
          "type": "address[]"
        },
        {
          "internalType": "uint256",
          "name": "percentage",
          "type": "uint256"
        },
        {
          "internalType": "uint256[]",
          "name": "minAmounts",
          "type": "uint256[]"
        }
      ],
      "name": "removeLiquidity",
      "outputs": [],
      "stateMutability": "nonpayable",
      "type": "function"
    }
  ],
  "bytecode": "0x608060405234801561001057600080fd5b5061109a806100206000396000f3fe608060405234801561001057600080fd5b50600436106100365760003560e01c8063a7cbc6e01461003b578063f2c9454414610050575b600080fd5b61004e610049366004610e17565b610063565b005b61004e61005e366004610d7d565b610509565b6000735757371414417b8c6caad45baef941abc7d3ab3263e6a439058787848161008f5761008f611036565b90506020020160208101906100a49190610d3c565b888860018181106100b7576100b7611036565b90506020020160208101906100cc9190610d3c565b6040516001600160e01b031960e085901b1681526001600160a01b0392831660048201529116602482015260440160206040518083038186803b15801561011257600080fd5b505afa158015610126573d6000803e3d6000fd5b505050506040513d601f19601f8201168201806040525081019061014a9190610d60565b6040516370a0823160e01b8152306004820152909150600090620186a09086906001600160a01b038516906370a082319060240160206040518083038186803b15801561019657600080fd5b505afa1580156101aa573d6000803e3d6000fd5b505050506040513d601f19601f820116820180604052508101906101ce9190610eb3565b6101d89190611001565b6101e29190610fdf565b60405163095ea7b360e01b815273a5e0829caced8ffdd4de3c43696c57f7d7a678ff6004820152600060248201529091506001600160a01b0383169063095ea7b390604401602060405180830381600087803b15801561024157600080fd5b505af1158015610255573d6000803e3d6000fd5b505050506040513d601f19601f820116820180604052508101906102799190610e91565b5060405163095ea7b360e01b815273a5e0829caced8ffdd4de3c43696c57f7d7a678ff6004820152602481018290526001600160a01b0383169063095ea7b390604401602060405180830381600087803b1580156102d657600080fd5b505af11580156102ea573d6000803e3d6000fd5b505050506040513d601f19601f8201168201806040525081019061030e9190610e91565b5060408051600280825260608201835260009260208301908036833701905050905073a5e0829caced8ffdd4de3c43696c57f7d7a678ff63baa2abde898960008161035b5761035b611036565b90506020020160208101906103709190610d3c565b8a8a600181811061038357610383611036565b90506020020160208101906103989190610d3c565b85898960008181106103ac576103ac611036565b905060200201358a8a60018181106103c6576103c6611036565b905060200201353042620186a06103dd9190610fc7565b60405160e089901b6001600160e01b03191681526001600160a01b039788166004820152958716602487015260448601949094526064850192909252608484015290921660a482015260c481019190915260e4016040805180830381600087803b15801561044a57600080fd5b505af115801561045e573d6000803e3d6000fd5b505050506040513d601f19601f820116820180604052508101906104829190610ecc565b8260008151811061049557610495611036565b60200260200101836001815181106104af576104af611036565b60200260200101828152508281525050507f35bb1883d40740aaac4bc12fccd1ce109ad86bd9ae262c10b34407ff3c46087488888386866040516104f7959493929190610f1e565b60405180910390a15050505050505050565b6000620186a08585600081811061052257610522611036565b905060200201358888600081811061053c5761053c611036565b90506020020160208101906105519190610d3c565b6040516370a0823160e01b81523060048201526001600160a01b0391909116906370a082319060240160206040518083038186803b15801561059257600080fd5b505afa1580156105a6573d6000803e3d6000fd5b505050506040513d601f19601f820116820180604052508101906105ca9190610eb3565b6105d49190611001565b6105de9190610fdf565b90506000620186a0868660018181106105f9576105f9611036565b905060200201358989600181811061061357610613611036565b90506020020160208101906106289190610d3c565b6040516370a0823160e01b81523060048201526001600160a01b0391909116906370a082319060240160206040518083038186803b15801561066957600080fd5b505afa15801561067d573d6000803e3d6000fd5b505050506040513d601f19601f820116820180604052508101906106a19190610eb3565b6106ab9190611001565b6106b59190610fdf565b9050878760008181106106ca576106ca611036565b90506020020160208101906106df9190610d3c565b60405163095ea7b360e01b815273a5e0829caced8ffdd4de3c43696c57f7d7a678ff6004820152600060248201526001600160a01b03919091169063095ea7b390604401602060405180830381600087803b15801561073d57600080fd5b505af1158015610751573d6000803e3d6000fd5b505050506040513d601f19601f820116820180604052508101906107759190610e91565b508787600081811061078957610789611036565b905060200201602081019061079e9190610d3c565b60405163095ea7b360e01b815273a5e0829caced8ffdd4de3c43696c57f7d7a678ff6004820152602481018490526001600160a01b03919091169063095ea7b390604401602060405180830381600087803b1580156107fc57600080fd5b505af1158015610810573d6000803e3d6000fd5b505050506040513d601f19601f820116820180604052508101906108349190610e91565b508787600181811061084857610848611036565b905060200201602081019061085d9190610d3c565b60405163095ea7b360e01b815273a5e0829caced8ffdd4de3c43696c57f7d7a678ff6004820152600060248201526001600160a01b03919091169063095ea7b390604401602060405180830381600087803b1580156108bb57600080fd5b505af11580156108cf573d6000803e3d6000fd5b505050506040513d601f19601f820116820180604052508101906108f39190610e91565b508787600181811061090757610907611036565b905060200201602081019061091c9190610d3c565b60405163095ea7b360e01b815273a5e0829caced8ffdd4de3c43696c57f7d7a678ff6004820152602481018390526001600160a01b03919091169063095ea7b390604401602060405180830381600087803b15801561097a57600080fd5b505af115801561098e573d6000803e3d6000fd5b505050506040513d601f19601f820116820180604052508101906109b29190610e91565b506109bb610cd2565b73a5e0829caced8ffdd4de3c43696c57f7d7a678ff63e8e337008a8a6000816109e6576109e6611036565b90506020020160208101906109fb9190610d3c565b8b8b6001818110610a0e57610a0e611036565b9050602002016020810190610a239190610d3c565b86868a8a6000818110610a3857610a38611036565b905060200201358b8b6001818110610a5257610a52611036565b905060200201353042620186a0610a699190610fc7565b60405160e08a901b6001600160e01b03191681526001600160a01b039889166004820152968816602488015260448701959095526064860193909352608485019190915260a484015290921660c482015260e481019190915261010401606060405180830381600087803b158015610ae057600080fd5b505af1158015610af4573d6000803e3d6000fd5b505050506040513d601f19601f82011682018060405250810190610b189190610ef0565b6040808501919091526020840191909152908252805160028082526060820190925260009181602001602082028036833750508351825192935091839150600090610b6557610b65611036565b6020908102919091010152816001602002015181600181518110610b8b57610b8b611036565b60209081029190910101526000735757371414417b8c6caad45baef941abc7d3ab3263e6a439058c8c8481610bc257610bc2611036565b9050602002016020810190610bd79190610d3c565b8d8d6001818110610bea57610bea611036565b9050602002016020810190610bff9190610d3c565b6040516001600160e01b031960e085901b1681526001600160a01b0392831660048201529116602482015260440160206040518083038186803b158015610c4557600080fd5b505afa158015610c59573d6000803e3d6000fd5b505050506040513d601f19601f82011682018060405250810190610c7d9190610d60565b90507f0c7a1f9efa50a947df4e5a82bde558be495d4630bde99a4ebd0d1bbd2ba37faa8b8b84848760026020020151604051610cbd959493929190610f1e565b60405180910390a15050505050505050505050565b60405180606001604052806003906020820280368337509192915050565b60008083601f840112610d0257600080fd5b50813567ffffffffffffffff811115610d1a57600080fd5b6020830191508360208260051b8501011115610d3557600080fd5b9250929050565b600060208284031215610d4e57600080fd5b8135610d598161104c565b9392505050565b600060208284031215610d7257600080fd5b8151610d598161104c565b60008060008060008060608789031215610d9657600080fd5b863567ffffffffffffffff80821115610dae57600080fd5b610dba8a838b01610cf0565b90985096506020890135915080821115610dd357600080fd5b610ddf8a838b01610cf0565b90965094506040890135915080821115610df857600080fd5b50610e0589828a01610cf0565b979a9699509497509295939492505050565b600080600080600060608688031215610e2f57600080fd5b853567ffffffffffffffff80821115610e4757600080fd5b610e5389838a01610cf0565b9097509550602088013594506040880135915080821115610e7357600080fd5b50610e8088828901610cf0565b969995985093965092949392505050565b600060208284031215610ea357600080fd5b81518015158114610d5957600080fd5b600060208284031215610ec557600080fd5b5051919050565b60008060408385031215610edf57600080fd5b505080516020909101519092909150565b600080600060608486031215610f0557600080fd5b8351925060208401519150604084015190509250925092565b6080808252810185905260008660a08301825b88811015610f61578235610f448161104c565b6001600160a01b0316825260209283019290910190600101610f31565b5060209150838103828501528087518083528383019150838901925060005b81811015610f9c57835183529284019291840191600101610f80565b50506001600160a01b03871660408601529250610fb7915050565b8260608301529695505050505050565b60008219821115610fda57610fda611020565b500190565b600082610ffc57634e487b7160e01b600052601260045260246000fd5b500490565b600081600019048311821515161561101b5761101b611020565b500290565b634e487b7160e01b600052601160045260246000fd5b634e487b7160e01b600052603260045260246000fd5b6001600160a01b038116811461106157600080fd5b5056fea2646970667358221220d9d41f899783c71f4e6ad16b285d9876891d20433c17cd3ec53f6586dc95fb2d64736f6c63430008060033",
  "linkReferences": {},
  "deployedLinkReferences": {}
}