{
  "_format": "hh-sol-artifact-1",
  "contractName": "QuickswapSwapBridge",
  "sourceName": "contracts/bridges/trusted/QuickswapSwapBridge/QuickswapSwapBridge.sol",
  "abi": [
    {
      "anonymous": false,
      "inputs": [
        {
          "indexed": false,
          "internalType": "address[]",
          "name": "path",
          "type": "address[]"
        },
        {
          "indexed": false,
          "internalType": "uint256[]",
          "name": "amounts",
          "type": "uint256[]"
        }
      ],
      "name": "INDEXPOOL_UNISWAPV2_SWAP",
      "type": "event"
    },
    {
      "inputs": [
        {
          "internalType": "uint256",
          "name": "amountInPercentage",
          "type": "uint256"
        },
        {
          "internalType": "uint256",
          "name": "amountOutMin",
          "type": "uint256"
        },
        {
          "internalType": "address[]",
          "name": "path",
          "type": "address[]"
        }
      ],
      "name": "swapTokenToToken",
      "outputs": [],
      "stateMutability": "nonpayable",
      "type": "function"
    }
  ],
  "bytecode": "0x608060405234801561001057600080fd5b506106e3806100206000396000f3fe608060405234801561001057600080fd5b506004361061002b5760003560e01c806399bb7e6414610030575b600080fd5b61004361003e3660046104b1565b610045565b005b73a5e0829caced8ffdd4de3c43696c57f7d7a678ff6000620186a0868585848161007157610071610681565b9050602002016020810190610086919061038f565b6040516370a0823160e01b81523060048201526001600160a01b0391909116906370a082319060240160206040518083038186803b1580156100c757600080fd5b505afa1580156100db573d6000803e3d6000fd5b505050506040513d601f19601f820116820180604052508101906100ff9190610498565b610109919061064c565b610113919061062a565b90508383600081811061012857610128610681565b905060200201602081019061013d919061038f565b60405163095ea7b360e01b815273a5e0829caced8ffdd4de3c43696c57f7d7a678ff6004820152600060248201526001600160a01b03919091169063095ea7b390604401602060405180830381600087803b15801561019b57600080fd5b505af11580156101af573d6000803e3d6000fd5b505050506040513d601f19601f820116820180604052508101906101d39190610476565b50838360008181106101e7576101e7610681565b90506020020160208101906101fc919061038f565b60405163095ea7b360e01b815273a5e0829caced8ffdd4de3c43696c57f7d7a678ff6004820152602481018390526001600160a01b03919091169063095ea7b390604401602060405180830381600087803b15801561025a57600080fd5b505af115801561026e573d6000803e3d6000fd5b505050506040513d601f19601f820116820180604052508101906102929190610476565b5060006001600160a01b0383166338ed173983888888306102b642620186a0610612565b6040518763ffffffff1660e01b81526004016102d7969594939291906105d4565b600060405180830381600087803b1580156102f157600080fd5b505af1158015610305573d6000803e3d6000fd5b505050506040513d6000823e601f3d908101601f1916820160405261032d91908101906103b1565b90507f4f508d96e785e90adbd337d9badd903bf6870a1315c2f89f89eca3bf251701378585836040516103629392919061057b565b60405180910390a150505050505050565b80356001600160a01b038116811461038a57600080fd5b919050565b6000602082840312156103a157600080fd5b6103aa82610373565b9392505050565b600060208083850312156103c457600080fd5b825167ffffffffffffffff808211156103dc57600080fd5b818501915085601f8301126103f057600080fd5b81518181111561040257610402610697565b8060051b604051601f19603f8301168101818110858211171561042757610427610697565b604052828152858101935084860182860187018a101561044657600080fd5b600095505b8386101561046957805185526001959095019493860193860161044b565b5098975050505050505050565b60006020828403121561048857600080fd5b815180151581146103aa57600080fd5b6000602082840312156104aa57600080fd5b5051919050565b600080600080606085870312156104c757600080fd5b8435935060208501359250604085013567ffffffffffffffff808211156104ed57600080fd5b818701915087601f83011261050157600080fd5b81358181111561051057600080fd5b8860208260051b850101111561052557600080fd5b95989497505060200194505050565b8183526000602080850194508260005b85811015610570576001600160a01b0361055d83610373565b1687529582019590820190600101610544565b509495945050505050565b60408152600061058f604083018587610534565b82810360208481019190915284518083528582019282019060005b818110156105c6578451835293830193918301916001016105aa565b509098975050505050505050565b86815285602082015260a0604082015260006105f460a083018688610534565b6001600160a01b039490941660608301525060800152949350505050565b600082198211156106255761062561066b565b500190565b60008261064757634e487b7160e01b600052601260045260246000fd5b500490565b60008160001904831182151516156106665761066661066b565b500290565b634e487b7160e01b600052601160045260246000fd5b634e487b7160e01b600052603260045260246000fd5b634e487b7160e01b600052604160045260246000fdfea2646970667358221220e3418171415113509adfa65cfcd909133c58aa21b66ba125b282cff79715fd1d64736f6c63430008060033",
  "linkReferences": {},
  "deployedLinkReferences": {}
}