{
  "_format": "hh-sol-artifact-1",
  "contractName": "WMaticWrapBridge",
  "sourceName": "contracts/bridges/trusted/WMaticWrapBridge/WMaticWrapBridge.sol",
  "abi": [
    {
      "anonymous": false,
      "inputs": [
        {
          "indexed": false,
          "internalType": "uint256",
          "name": "amountOut",
          "type": "uint256"
        }
      ],
      "name": "INDEXPOOL_WMATIC_UNWRAP",
      "type": "event"
    },
    {
      "anonymous": false,
      "inputs": [
        {
          "indexed": false,
          "internalType": "uint256",
          "name": "amountIn",
          "type": "uint256"
        }
      ],
      "name": "INDEXPOOL_WMATIC_WRAP",
      "type": "event"
    },
    {
      "inputs": [
        {
          "internalType": "uint256",
          "name": "percentageOut",
          "type": "uint256"
        }
      ],
      "name": "unwrap",
      "outputs": [],
      "stateMutability": "nonpayable",
      "type": "function"
    },
    {
      "inputs": [
        {
          "internalType": "uint256",
          "name": "percentageIn",
          "type": "uint256"
        }
      ],
      "name": "wrap",
      "outputs": [],
      "stateMutability": "nonpayable",
      "type": "function"
    }
  ],
  "bytecode": "0x608060405234801561001057600080fd5b506103a5806100206000396000f3fe608060405234801561001057600080fd5b50600436106100365760003560e01c8063de0e9a3e1461003b578063ea598cb014610050575b600080fd5b61004e6100493660046102ee565b610063565b005b61004e61005e3660046102ee565b61022b565b6040516370a0823160e01b81523060048201527f5a9a9f0321f53475b933adc9b62267fe4bd5d0cbc378e51d34d35e4d8d79c99d90620186a0908390730d500b1d8e8ef31e21c99d1db9a6444d3adf1270906370a082319060240160206040518083038186803b1580156100d657600080fd5b505afa1580156100ea573d6000803e3d6000fd5b505050506040513d601f19601f8201168201806040525081019061010e9190610307565b6101189190610342565b6101229190610320565b60405190815260200160405180910390a16040516370a0823160e01b8152306004820152730d500b1d8e8ef31e21c99d1db9a6444d3adf127090632e1a7d4d90620186a090849084906370a082319060240160206040518083038186803b15801561018c57600080fd5b505afa1580156101a0573d6000803e3d6000fd5b505050506040513d601f19601f820116820180604052508101906101c49190610307565b6101ce9190610342565b6101d89190610320565b6040518263ffffffff1660e01b81526004016101f691815260200190565b600060405180830381600087803b15801561021057600080fd5b505af1158015610224573d6000803e3d6000fd5b5050505050565b7fe183993bfb5f20e22a654bdb686ce7e6be63fc38bc38d617b2490f052d7b229f620186a061025a8347610342565b6102649190610320565b60405190815260200160405180910390a1730d500b1d8e8ef31e21c99d1db9a6444d3adf127063d0e30db0620186a061029d8447610342565b6102a79190610320565b6040518263ffffffff1660e01b81526004016000604051808303818588803b1580156102d257600080fd5b505af11580156102e6573d6000803e3d6000fd5b505050505050565b60006020828403121561030057600080fd5b5035919050565b60006020828403121561031957600080fd5b5051919050565b60008261033d57634e487b7160e01b600052601260045260246000fd5b500490565b600081600019048311821515161561036a57634e487b7160e01b600052601160045260246000fd5b50029056fea26469706673582212200543421f9ecaaa5f175a10f683dab63e744e58596b6947ed172c7ec9692de0cf64736f6c63430008060033",
  "linkReferences": {},
  "deployedLinkReferences": {}
}