{
  "_format": "hh-sol-artifact-1",
  "contractName": "DeFiBasket",
  "sourceName": "contracts/DeFiBasket.sol",
  "abi": [
    {
      "inputs": [],
      "stateMutability": "nonpayable",
      "type": "constructor"
    },
    {
      "anonymous": false,
      "inputs": [
        {
          "indexed": true,
          "internalType": "address",
          "name": "owner",
          "type": "address"
        },
        {
          "indexed": true,
          "internalType": "address",
          "name": "approved",
          "type": "address"
        },
        {
          "indexed": true,
          "internalType": "uint256",
          "name": "tokenId",
          "type": "uint256"
        }
      ],
      "name": "Approval",
      "type": "event"
    },
    {
      "anonymous": false,
      "inputs": [
        {
          "indexed": true,
          "internalType": "address",
          "name": "owner",
          "type": "address"
        },
        {
          "indexed": true,
          "internalType": "address",
          "name": "operator",
          "type": "address"
        },
        {
          "indexed": false,
          "internalType": "bool",
          "name": "approved",
          "type": "bool"
        }
      ],
      "name": "ApprovalForAll",
      "type": "event"
    },
    {
      "anonymous": false,
      "inputs": [
        {
          "indexed": false,
          "internalType": "uint256",
          "name": "nftId",
          "type": "uint256"
        },
        {
          "indexed": false,
          "internalType": "address",
          "name": "wallet",
          "type": "address"
        }
      ],
      "name": "DEFIBASKET_CREATE",
      "type": "event"
    },
    {
      "anonymous": false,
      "inputs": [],
      "name": "DEFIBASKET_DEPOSIT",
      "type": "event"
    },
    {
      "anonymous": false,
      "inputs": [],
      "name": "DEFIBASKET_EDIT",
      "type": "event"
    },
    {
      "anonymous": false,
      "inputs": [
        {
          "indexed": false,
          "internalType": "uint256[]",
          "name": "outputAmounts",
          "type": "uint256[]"
        },
        {
          "indexed": false,
          "internalType": "uint256",
          "name": "ethAmount",
          "type": "uint256"
        }
      ],
      "name": "DEFIBASKET_WITHDRAW",
      "type": "event"
    },
    {
      "anonymous": false,
      "inputs": [
        {
          "indexed": true,
          "internalType": "address",
          "name": "previousOwner",
          "type": "address"
        },
        {
          "indexed": true,
          "internalType": "address",
          "name": "newOwner",
          "type": "address"
        }
      ],
      "name": "OwnershipTransferred",
      "type": "event"
    },
    {
      "anonymous": false,
      "inputs": [
        {
          "indexed": true,
          "internalType": "address",
          "name": "from",
          "type": "address"
        },
        {
          "indexed": true,
          "internalType": "address",
          "name": "to",
          "type": "address"
        },
        {
          "indexed": true,
          "internalType": "uint256",
          "name": "tokenId",
          "type": "uint256"
        }
      ],
      "name": "Transfer",
      "type": "event"
    },
    {
      "inputs": [
        {
          "internalType": "address",
          "name": "to",
          "type": "address"
        },
        {
          "internalType": "uint256",
          "name": "tokenId",
          "type": "uint256"
        }
      ],
      "name": "approve",
      "outputs": [],
      "stateMutability": "nonpayable",
      "type": "function"
    },
    {
      "inputs": [
        {
          "internalType": "address",
          "name": "owner",
          "type": "address"
        }
      ],
      "name": "balanceOf",
      "outputs": [
        {
          "internalType": "uint256",
          "name": "",
          "type": "uint256"
        }
      ],
      "stateMutability": "view",
      "type": "function"
    },
    {
      "inputs": [
        {
          "components": [
            {
              "internalType": "address[]",
              "name": "tokens",
              "type": "address[]"
            },
            {
              "internalType": "uint256[]",
              "name": "amounts",
              "type": "uint256[]"
            }
          ],
          "internalType": "struct DBDataTypes.TokenData",
          "name": "inputs",
          "type": "tuple"
        },
        {
          "internalType": "address[]",
          "name": "bridgeAddresses",
          "type": "address[]"
        },
        {
          "internalType": "bytes[]",
          "name": "bridgeEncodedCalls",
          "type": "bytes[]"
        }
      ],
      "name": "createPortfolio",
      "outputs": [],
      "stateMutability": "payable",
      "type": "function"
    },
    {
      "inputs": [
        {
          "internalType": "uint256",
          "name": "nftId",
          "type": "uint256"
        },
        {
          "components": [
            {
              "internalType": "address[]",
              "name": "tokens",
              "type": "address[]"
            },
            {
              "internalType": "uint256[]",
              "name": "amounts",
              "type": "uint256[]"
            }
          ],
          "internalType": "struct DBDataTypes.TokenData",
          "name": "inputs",
          "type": "tuple"
        },
        {
          "internalType": "address[]",
          "name": "bridgeAddresses",
          "type": "address[]"
        },
        {
          "internalType": "bytes[]",
          "name": "bridgeEncodedCalls",
          "type": "bytes[]"
        }
      ],
      "name": "depositPortfolio",
      "outputs": [],
      "stateMutability": "payable",
      "type": "function"
    },
    {
      "inputs": [
        {
          "internalType": "uint256",
          "name": "nftId",
          "type": "uint256"
        },
        {
          "internalType": "address[]",
          "name": "bridgeAddresses",
          "type": "address[]"
        },
        {
          "internalType": "bytes[]",
          "name": "bridgeEncodedCalls",
          "type": "bytes[]"
        }
      ],
      "name": "editPortfolio",
      "outputs": [],
      "stateMutability": "nonpayable",
      "type": "function"
    },
    {
      "inputs": [
        {
          "internalType": "uint256",
          "name": "tokenId",
          "type": "uint256"
        }
      ],
      "name": "getApproved",
      "outputs": [
        {
          "internalType": "address",
          "name": "",
          "type": "address"
        }
      ],
      "stateMutability": "view",
      "type": "function"
    },
    {
      "inputs": [
        {
          "internalType": "address",
          "name": "owner",
          "type": "address"
        },
        {
          "internalType": "address",
          "name": "operator",
          "type": "address"
        }
      ],
      "name": "isApprovedForAll",
      "outputs": [
        {
          "internalType": "bool",
          "name": "",
          "type": "bool"
        }
      ],
      "stateMutability": "view",
      "type": "function"
    },
    {
      "inputs": [],
      "name": "name",
      "outputs": [
        {
          "internalType": "string",
          "name": "",
          "type": "string"
        }
      ],
      "stateMutability": "view",
      "type": "function"
    },
    {
      "inputs": [],
      "name": "owner",
      "outputs": [
        {
          "internalType": "address",
          "name": "",
          "type": "address"
        }
      ],
      "stateMutability": "view",
      "type": "function"
    },
    {
      "inputs": [
        {
          "internalType": "uint256",
          "name": "tokenId",
          "type": "uint256"
        }
      ],
      "name": "ownerOf",
      "outputs": [
        {
          "internalType": "address",
          "name": "",
          "type": "address"
        }
      ],
      "stateMutability": "view",
      "type": "function"
    },
    {
      "inputs": [],
      "name": "renounceOwnership",
      "outputs": [],
      "stateMutability": "nonpayable",
      "type": "function"
    },
    {
      "inputs": [
        {
          "internalType": "address",
          "name": "from",
          "type": "address"
        },
        {
          "internalType": "address",
          "name": "to",
          "type": "address"
        },
        {
          "internalType": "uint256",
          "name": "tokenId",
          "type": "uint256"
        }
      ],
      "name": "safeTransferFrom",
      "outputs": [],
      "stateMutability": "nonpayable",
      "type": "function"
    },
    {
      "inputs": [
        {
          "internalType": "address",
          "name": "from",
          "type": "address"
        },
        {
          "internalType": "address",
          "name": "to",
          "type": "address"
        },
        {
          "internalType": "uint256",
          "name": "tokenId",
          "type": "uint256"
        },
        {
          "internalType": "bytes",
          "name": "_data",
          "type": "bytes"
        }
      ],
      "name": "safeTransferFrom",
      "outputs": [],
      "stateMutability": "nonpayable",
      "type": "function"
    },
    {
      "inputs": [
        {
          "internalType": "address",
          "name": "operator",
          "type": "address"
        },
        {
          "internalType": "bool",
          "name": "approved",
          "type": "bool"
        }
      ],
      "name": "setApprovalForAll",
      "outputs": [],
      "stateMutability": "nonpayable",
      "type": "function"
    },
    {
      "inputs": [
        {
          "internalType": "string",
          "name": "nftImageURI",
          "type": "string"
        }
      ],
      "name": "setBaseURI",
      "outputs": [],
      "stateMutability": "nonpayable",
      "type": "function"
    },
    {
      "inputs": [
        {
          "internalType": "bytes4",
          "name": "interfaceId",
          "type": "bytes4"
        }
      ],
      "name": "supportsInterface",
      "outputs": [
        {
          "internalType": "bool",
          "name": "",
          "type": "bool"
        }
      ],
      "stateMutability": "view",
      "type": "function"
    },
    {
      "inputs": [],
      "name": "symbol",
      "outputs": [
        {
          "internalType": "string",
          "name": "",
          "type": "string"
        }
      ],
      "stateMutability": "view",
      "type": "function"
    },
    {
      "inputs": [],
      "name": "tokenCounter",
      "outputs": [
        {
          "internalType": "uint256",
          "name": "",
          "type": "uint256"
        }
      ],
      "stateMutability": "view",
      "type": "function"
    },
    {
      "inputs": [
        {
          "internalType": "uint256",
          "name": "tokenId",
          "type": "uint256"
        }
      ],
      "name": "tokenURI",
      "outputs": [
        {
          "internalType": "string",
          "name": "",
          "type": "string"
        }
      ],
      "stateMutability": "view",
      "type": "function"
    },
    {
      "inputs": [
        {
          "internalType": "address",
          "name": "from",
          "type": "address"
        },
        {
          "internalType": "address",
          "name": "to",
          "type": "address"
        },
        {
          "internalType": "uint256",
          "name": "tokenId",
          "type": "uint256"
        }
      ],
      "name": "transferFrom",
      "outputs": [],
      "stateMutability": "nonpayable",
      "type": "function"
    },
    {
      "inputs": [
        {
          "internalType": "address",
          "name": "newOwner",
          "type": "address"
        }
      ],
      "name": "transferOwnership",
      "outputs": [],
      "stateMutability": "nonpayable",
      "type": "function"
    },
    {
      "inputs": [
        {
          "internalType": "uint256",
          "name": "nftId",
          "type": "uint256"
        }
      ],
      "name": "walletOf",
      "outputs": [
        {
          "internalType": "address",
          "name": "",
          "type": "address"
        }
      ],
      "stateMutability": "view",
      "type": "function"
    },
    {
      "inputs": [
        {
          "internalType": "uint256",
          "name": "nftId",
          "type": "uint256"
        },
        {
          "components": [
            {
              "internalType": "address[]",
              "name": "tokens",
              "type": "address[]"
            },
            {
              "internalType": "uint256[]",
              "name": "amounts",
              "type": "uint256[]"
            }
          ],
          "internalType": "struct DBDataTypes.TokenData",
          "name": "outputs",
          "type": "tuple"
        },
        {
          "internalType": "uint256",
          "name": "outputEthPercentage",
          "type": "uint256"
        },
        {
          "internalType": "address[]",
          "name": "bridgeAddresses",
          "type": "address[]"
        },
        {
          "internalType": "bytes[]",
          "name": "bridgeEncodedCalls",
          "type": "bytes[]"
        }
      ],
      "name": "withdrawPortfolio",
      "outputs": [],
      "stateMutability": "nonpayable",
      "type": "function"
    }
  ],
  "bytecode": "0x6000600755610100604052603060a08181529062003bcb60c03980516200002f9160099160209091019062000161565b503480156200003d57600080fd5b50604080518082018252600f81526e1119519a4810985cdad95d08139195608a1b602080830191825283518085019094526009845268109054d2d15513919560ba1b908401528151919291620000969160009162000161565b508051620000ac90600190602084019062000161565b505050620000c9620000c36200010b60201b60201c565b6200010f565b604051620000d790620001f0565b604051809103906000f080158015620000f4573d6000803e3d6000fd5b5060601b6001600160601b03191660805262000252565b3390565b600680546001600160a01b038381166001600160a01b0319831681179093556040519116919082907f8be0079c531659141344cd1fd0a4f28419497f9722a3daafe3b4186f6b6457e090600090a35050565b8280546200016f9062000215565b90600052602060002090601f016020900481019282620001935760008555620001de565b82601f10620001ae57805160ff1916838001178555620001de565b82800160010185558215620001de579182015b82811115620001de578251825591602001919060010190620001c1565b50620001ec929150620001fe565b5090565b610bd28062002ff983390190565b5b80821115620001ec5760008155600101620001ff565b600181811c908216806200022a57607f821691505b602082108114156200024c57634e487b7160e01b600052602260045260246000fd5b50919050565b60805160601c612d886200027160003960006113040152612d886000f3fe6080604052600436106101405760003560e01c80637804d8bd116100b6578063b88d4fde1161006f578063b88d4fde14610372578063c87b56dd14610392578063d082e381146103b2578063e0fa88e1146103c8578063e985e9c5146103fe578063f2fde38b1461044757600080fd5b80637804d8bd146102cc5780638da5cb5b146102ec57806391249f201461030a57806395d89b411461031d578063a22cb46514610332578063ad97faa41461035257600080fd5b806342842e0e1161010857806342842e0e1461021657806355f804b31461023657806362e33556146102565780636352211e1461026957806370a0823114610289578063715018a6146102b757600080fd5b806301ffc9a71461014557806306fdde031461017a578063081812fc1461019c578063095ea7b3146101d457806323b872dd146101f6575b600080fd5b34801561015157600080fd5b506101656101603660046122b8565b610467565b60405190151581526020015b60405180910390f35b34801561018657600080fd5b5061018f6104b9565b60405161017191906127ed565b3480156101a857600080fd5b506101bc6101b73660046123ce565b61054b565b6040516001600160a01b039091168152602001610171565b3480156101e057600080fd5b506101f46101ef3660046121bd565b6105e5565b005b34801561020257600080fd5b506101f46102113660046120cf565b6106fb565b34801561022257600080fd5b506101f46102313660046120cf565b61072c565b34801561024257600080fd5b506101f46102513660046122f2565b610747565b6101f461026436600461233a565b610788565b34801561027557600080fd5b506101bc6102843660046123ce565b610913565b34801561029557600080fd5b506102a96102a4366004612081565b61098a565b604051908152602001610171565b3480156102c357600080fd5b506101f4610a11565b3480156102d857600080fd5b506101f46102e73660046124ba565b610a47565b3480156102f857600080fd5b506006546001600160a01b03166101bc565b6101f461031836600461241d565b610bb6565b34801561032957600080fd5b5061018f610d4d565b34801561033e57600080fd5b506101f461034d366004612186565b610d5c565b34801561035e57600080fd5b506101f461036d3660046123e7565b610d67565b34801561037e57600080fd5b506101f461038d36600461210b565b610e06565b34801561039e57600080fd5b5061018f6103ad3660046123ce565b610e3e565b3480156103be57600080fd5b506102a960075481565b3480156103d457600080fd5b506101bc6103e33660046123ce565b6000908152600860205260409020546001600160a01b031690565b34801561040a57600080fd5b5061016561041936600461209c565b6001600160a01b03918216600090815260056020908152604080832093909416825291909152205460ff1690565b34801561045357600080fd5b506101f4610462366004612081565b610f19565b60006001600160e01b031982166380ac58cd60e01b148061049857506001600160e01b03198216635b5e139f60e01b145b806104b357506301ffc9a760e01b6001600160e01b03198316145b92915050565b6060600080546104c890612c50565b80601f01602080910402602001604051908101604052809291908181526020018280546104f490612c50565b80156105415780601f1061051657610100808354040283529160200191610541565b820191906000526020600020905b81548152906001019060200180831161052457829003601f168201915b5050505050905090565b6000818152600260205260408120546001600160a01b03166105c95760405162461bcd60e51b815260206004820152602c60248201527f4552433732313a20617070726f76656420717565727920666f72206e6f6e657860448201526b34b9ba32b73a103a37b5b2b760a11b60648201526084015b60405180910390fd5b506000908152600460205260409020546001600160a01b031690565b60006105f082610913565b9050806001600160a01b0316836001600160a01b0316141561065e5760405162461bcd60e51b815260206004820152602160248201527f4552433732313a20617070726f76616c20746f2063757272656e74206f776e656044820152603960f91b60648201526084016105c0565b336001600160a01b038216148061067a575061067a8133610419565b6106ec5760405162461bcd60e51b815260206004820152603860248201527f4552433732313a20617070726f76652063616c6c6572206973206e6f74206f7760448201527f6e6572206e6f7220617070726f76656420666f7220616c6c000000000000000060648201526084016105c0565b6106f68383610fb4565b505050565b6107053382611022565b6107215760405162461bcd60e51b81526004016105c09061292d565b6106f6838383611119565b6106f683838360405180602001604052806000815250610e06565b6006546001600160a01b031633146107715760405162461bcd60e51b81526004016105c0906128a7565b8051610784906009906020840190611f17565b5050565b84346107976020830183612b20565b90506107a38380612b20565b9050146107c25760405162461bcd60e51b81526004016105c090612a49565b60005b6107d26020840184612b20565b90508161ffff1610156108385760006107ee6020850185612b20565b8361ffff1681811061080257610802612d02565b90506020020135116108265760405162461bcd60e51b81526004016105c090612852565b8061083081612c85565b9150506107c5565b5060006108486020840184612b20565b905011806108565750600081115b6108725760405162461bcd60e51b81526004016105c0906129ec565b858585858083146108955760405162461bcd60e51b81526004016105c09061297e565b6108e08b8b8b8b8b6040516024016108b1959493929190612aa6565b60408051601f198184030181529190526020810180516001600160e01b03166331719aab60e11b1790526112b9565b60006108eb336112fc565b90506108f8818d346113b9565b610905818c8c8c8c6115a1565b505050505050505050505050565b6000818152600260205260408120546001600160a01b0316806104b35760405162461bcd60e51b815260206004820152602960248201527f4552433732313a206f776e657220717565727920666f72206e6f6e657869737460448201526832b73a103a37b5b2b760b91b60648201526084016105c0565b60006001600160a01b0382166109f55760405162461bcd60e51b815260206004820152602a60248201527f4552433732313a2062616c616e636520717565727920666f7220746865207a65604482015269726f206164647265737360b01b60648201526084016105c0565b506001600160a01b031660009081526003602052604090205490565b6006546001600160a01b03163314610a3b5760405162461bcd60e51b81526004016105c0906128a7565b610a45600061162b565b565b8585610a566020830183612b20565b9050610a628380612b20565b905014610a815760405162461bcd60e51b81526004016105c090612a49565b60005b610a916020840184612b20565b90508161ffff161015610af7576000610aad6020850185612b20565b8361ffff16818110610ac157610ac1612d02565b9050602002013511610ae55760405162461bcd60e51b81526004016105c090612852565b80610aef81612c85565b915050610a84565b506000610b076020840184612b20565b90501180610b155750600081115b610b315760405162461bcd60e51b81526004016105c0906129ec565b85858585808314610b545760405162461bcd60e51b81526004016105c09061297e565b8c610b5e81610913565b6001600160a01b0316336001600160a01b031614610b8e5760405162461bcd60e51b81526004016105c0906128dc565b610b9b8e8c8c8c8c6115a1565b610ba68e8e8e61167d565b5050505050505050505050505050565b8434610bc56020830183612b20565b9050610bd18380612b20565b905014610bf05760405162461bcd60e51b81526004016105c090612a49565b60005b610c006020840184612b20565b90508161ffff161015610c66576000610c1c6020850185612b20565b8361ffff16818110610c3057610c30612d02565b9050602002013511610c545760405162461bcd60e51b81526004016105c090612852565b80610c5e81612c85565b915050610bf3565b506000610c766020840184612b20565b90501180610c845750600081115b610ca05760405162461bcd60e51b81526004016105c0906129ec565b85858585808314610cc35760405162461bcd60e51b81526004016105c09061297e565b8b610ccd81610913565b6001600160a01b0316336001600160a01b031614610cfd5760405162461bcd60e51b81526004016105c0906128dc565b6040517fec5edaa254eabbeb78800c10973d26937394311e5f63116baf1f5bc2ebb3d92590600090a1610d318d8d346113b9565b610d3e8d8c8c8c8c6115a1565b50505050505050505050505050565b6060600180546104c890612c50565b610784338383611778565b83838383808314610d8a5760405162461bcd60e51b81526004016105c09061297e565b88610d9481610913565b6001600160a01b0316336001600160a01b031614610dc45760405162461bcd60e51b81526004016105c0906128dc565b6040517f098a5c64764c319df560b46daf95a5edaa4ffdd24a9bad5c9de976d41cfdfaeb90600090a1610dfa8a8a8a8a8a6115a1565b50505050505050505050565b610e103383611022565b610e2c5760405162461bcd60e51b81526004016105c09061292d565b610e3884848484611847565b50505050565b6000818152600260205260409020546060906001600160a01b0316610ebd5760405162461bcd60e51b815260206004820152602f60248201527f4552433732314d657461646174613a2055524920717565727920666f72206e6f60448201526e3732bc34b9ba32b73a103a37b5b2b760891b60648201526084016105c0565b6000610ec761187a565b90506000815111610ee75760405180602001604052806000815250610f12565b80610ef184611889565b604051602001610f02929190612712565b6040516020818303038152906040525b9392505050565b6006546001600160a01b03163314610f435760405162461bcd60e51b81526004016105c0906128a7565b6001600160a01b038116610fa85760405162461bcd60e51b815260206004820152602660248201527f4f776e61626c653a206e6577206f776e657220697320746865207a65726f206160448201526564647265737360d01b60648201526084016105c0565b610fb18161162b565b50565b600081815260046020526040902080546001600160a01b0319166001600160a01b0384169081179091558190610fe982610913565b6001600160a01b03167f8c5be1e5ebec7d5bd14f71427d1e84f3dd0314c0f7b2291e5b200ac8c7c3b92560405160405180910390a45050565b6000818152600260205260408120546001600160a01b031661109b5760405162461bcd60e51b815260206004820152602c60248201527f4552433732313a206f70657261746f7220717565727920666f72206e6f6e657860448201526b34b9ba32b73a103a37b5b2b760a11b60648201526084016105c0565b60006110a683610913565b9050806001600160a01b0316846001600160a01b031614806110e15750836001600160a01b03166110d68461054b565b6001600160a01b0316145b8061111157506001600160a01b0380821660009081526005602090815260408083209388168352929052205460ff165b949350505050565b826001600160a01b031661112c82610913565b6001600160a01b0316146111945760405162461bcd60e51b815260206004820152602960248201527f4552433732313a207472616e73666572206f6620746f6b656e2074686174206960448201526839903737ba1037bbb760b91b60648201526084016105c0565b6001600160a01b0382166111f65760405162461bcd60e51b8152602060048201526024808201527f4552433732313a207472616e7366657220746f20746865207a65726f206164646044820152637265737360e01b60648201526084016105c0565b611201600082610fb4565b6001600160a01b038316600090815260036020526040812080546001929061122a908490612c0d565b90915550506001600160a01b0382166000908152600360205260408120805460019290611258908490612be1565b909155505060008181526002602052604080822080546001600160a01b0319166001600160a01b0386811691821790925591518493918716917fddf252ad1be2c89b69c2b068fc378daa952ba7f163c4a11628f55a4df523b3ef91a4505050565b610fb1816040516024016112cd91906127ed565b60408051601f198184030181529190526020810180516001600160e01b03166305f3bfab60e11b179052611986565b6000806113287f00000000000000000000000000000000000000000000000000000000000000006119a7565b60078054600081815260086020526040902080546001600160a01b0319166001600160a01b038516179055905491925090611364906001612be1565b6007556113718482611a44565b604080518281526001600160a01b03841660208201527f827c603e5fad3c3ec77bf9b91a9ea99943aebb693ca8c9e838194bca5ffff0b2910160405180910390a19392505050565b60006113cd6006546001600160a01b031690565b905060006113dd6103e884612bf9565b9050816001600160a01b03168160405160006040518083038185875af1925050503d806000811461142a576040519150601f19603f3d011682016040523d82523d6000602084013e61142f565b606091505b5050506000858152600860205260409020546001600160a01b0316806114558386612c0d565b604051600081818185875af1925050503d8060008114611491576040519150601f19603f3d011682016040523d82523d6000602084013e611496565b606091505b50505060005b6114a68680612b20565b90508161ffff161015611598576103e86114c36020880188612b20565b8361ffff168181106114d7576114d7612d02565b905060200201356114e89190612bf9565b925061153c6114f688610913565b85856115028a80612b20565b8661ffff1681811061151657611516612d02565b905060200201602081019061152b9190612081565b6001600160a01b0316929190611a5e565b61158661154888610913565b838561155760208b018b612b20565b8661ffff1681811061156b5761156b612d02565b9050602002013561157c9190612c0d565b6115028a80612b20565b8061159081612c85565b91505061149c565b50505050505050565b6000858152600860205260408120546001600160a01b031660405163d124b3b760e01b815290915081906001600160a01b0382169063d124b3b7906115f090899089908990899060040161277e565b600060405180830381600087803b15801561160a57600080fd5b505af115801561161e573d6000803e3d6000fd5b5050505050505050505050565b600680546001600160a01b038381166001600160a01b0319831681179093556040519116919082907f8be0079c531659141344cd1fd0a4f28419497f9722a3daafe3b4186f6b6457e090600090a35050565b60606000806116a1866000908152600860205260409020546001600160a01b031690565b9050806001600160a01b031663642c438c86866116bd8a610913565b6040518463ffffffff1660e01b81526004016116db93929190612aed565b600060405180830381600087803b1580156116f557600080fd5b505af1158015611709573d6000803e3d6000fd5b505050506040513d6000823e601f3d908101601f1916820160405261173191908101906121e7565b60405191945092507fb2d45cfa56b83d9af7e750bfaec5723ef33fb9cc10ae955cf6809e33a7ba57e49061176890859085906127a5565b60405180910390a1505050505050565b816001600160a01b0316836001600160a01b031614156117da5760405162461bcd60e51b815260206004820152601960248201527f4552433732313a20617070726f766520746f2063616c6c65720000000000000060448201526064016105c0565b6001600160a01b03838116600081815260056020908152604080832094871680845294825291829020805460ff191686151590811790915591519182527f17307eab39ab6107e8899845ad3d59bd9653f200f220920489ca2b5937696c31910160405180910390a3505050565b611852848484611119565b61185e84848484611ab8565b610e385760405162461bcd60e51b81526004016105c090612800565b6060600980546104c890612c50565b6060816118ad5750506040805180820190915260018152600360fc1b602082015290565b8160005b81156118d757806118c181612ca7565b91506118d09050600a83612bf9565b91506118b1565b6000816001600160401b038111156118f1576118f1612d18565b6040519080825280601f01601f19166020018201604052801561191b576020820181803683370190505b5090505b841561111157611930600183612c0d565b915061193d600a86612cc2565b611948906030612be1565b60f81b81838151811061195d5761195d612d02565b60200101906001600160f81b031916908160001a90535061197f600a86612bf9565b945061191f565b80516a636f6e736f6c652e6c6f67602083016000808483855afa5050505050565b6000604051733d602d80600a3d3981f3363d3d373d3d3d363d7360601b81528260601b60148201526e5af43d82803e903d91602b57fd5bf360881b60288201526037816000f09150506001600160a01b038116611a3f5760405162461bcd60e51b8152602060048201526016602482015275115490cc4c4d8dce8818dc99585d194819985a5b195960521b60448201526064016105c0565b919050565b610784828260405180602001604052806000815250611bc5565b604080516001600160a01b0385811660248301528416604482015260648082018490528251808303909101815260849091019091526020810180516001600160e01b03166323b872dd60e01b179052610e38908590611bf8565b60006001600160a01b0384163b15611bba57604051630a85bd0160e11b81526001600160a01b0385169063150b7a0290611afc903390899088908890600401612741565b602060405180830381600087803b158015611b1657600080fd5b505af1925050508015611b46575060408051601f3d908101601f19168201909252611b43918101906122d5565b60015b611ba0573d808015611b74576040519150601f19603f3d011682016040523d82523d6000602084013e611b79565b606091505b508051611b985760405162461bcd60e51b81526004016105c090612800565b805181602001fd5b6001600160e01b031916630a85bd0160e11b149050611111565b506001949350505050565b611bcf8383611cca565b611bdc6000848484611ab8565b6106f65760405162461bcd60e51b81526004016105c090612800565b6000611c4d826040518060400160405280602081526020017f5361666545524332303a206c6f772d6c6576656c2063616c6c206661696c6564815250856001600160a01b0316611e0c9092919063ffffffff16565b8051909150156106f65780806020019051810190611c6b919061229b565b6106f65760405162461bcd60e51b815260206004820152602a60248201527f5361666545524332303a204552433230206f7065726174696f6e20646964206e6044820152691bdd081cdd58d8d9595960b21b60648201526084016105c0565b6001600160a01b038216611d205760405162461bcd60e51b815260206004820181905260248201527f4552433732313a206d696e7420746f20746865207a65726f206164647265737360448201526064016105c0565b6000818152600260205260409020546001600160a01b031615611d855760405162461bcd60e51b815260206004820152601c60248201527f4552433732313a20746f6b656e20616c7265616479206d696e7465640000000060448201526064016105c0565b6001600160a01b0382166000908152600360205260408120805460019290611dae908490612be1565b909155505060008181526002602052604080822080546001600160a01b0319166001600160a01b03861690811790915590518392907fddf252ad1be2c89b69c2b068fc378daa952ba7f163c4a11628f55a4df523b3ef908290a45050565b6060611111848460008585843b611e655760405162461bcd60e51b815260206004820152601d60248201527f416464726573733a2063616c6c20746f206e6f6e2d636f6e747261637400000060448201526064016105c0565b600080866001600160a01b03168587604051611e8191906126f6565b60006040518083038185875af1925050503d8060008114611ebe576040519150601f19603f3d011682016040523d82523d6000602084013e611ec3565b606091505b5091509150611ed3828286611ede565b979650505050505050565b60608315611eed575081610f12565b825115611efd5782518084602001fd5b8160405162461bcd60e51b81526004016105c091906127ed565b828054611f2390612c50565b90600052602060002090601f016020900481019282611f455760008555611f8b565b82601f10611f5e57805160ff1916838001178555611f8b565b82800160010185558215611f8b579182015b82811115611f8b578251825591602001919060010190611f70565b50611f97929150611f9b565b5090565b5b80821115611f975760008155600101611f9c565b60006001600160401b03831115611fc957611fc9612d18565b611fdc601f8401601f1916602001612b69565b9050828152838383011115611ff057600080fd5b828260208301376000602084830101529392505050565b80356001600160a01b0381168114611a3f57600080fd5b60008083601f84011261203057600080fd5b5081356001600160401b0381111561204757600080fd5b6020830191508360208260051b850101111561206257600080fd5b9250929050565b60006040828403121561207b57600080fd5b50919050565b60006020828403121561209357600080fd5b610f1282612007565b600080604083850312156120af57600080fd5b6120b883612007565b91506120c660208401612007565b90509250929050565b6000806000606084860312156120e457600080fd5b6120ed84612007565b92506120fb60208501612007565b9150604084013590509250925092565b6000806000806080858703121561212157600080fd5b61212a85612007565b935061213860208601612007565b92506040850135915060608501356001600160401b0381111561215a57600080fd5b8501601f8101871361216b57600080fd5b61217a87823560208401611fb0565b91505092959194509250565b6000806040838503121561219957600080fd5b6121a283612007565b915060208301356121b281612d2e565b809150509250929050565b600080604083850312156121d057600080fd5b6121d983612007565b946020939093013593505050565b600080604083850312156121fa57600080fd5b82516001600160401b038082111561221157600080fd5b818501915085601f83011261222557600080fd5b815160208282111561223957612239612d18565b8160051b925061224a818401612b69565b8281528181019085830185870184018b101561226557600080fd5b600096505b8487101561228857805183526001969096019591830191830161226a565b5097909101519698969750505050505050565b6000602082840312156122ad57600080fd5b8151610f1281612d2e565b6000602082840312156122ca57600080fd5b8135610f1281612d3c565b6000602082840312156122e757600080fd5b8151610f1281612d3c565b60006020828403121561230457600080fd5b81356001600160401b0381111561231a57600080fd5b8201601f8101841361232b57600080fd5b61111184823560208401611fb0565b60008060008060006060868803121561235257600080fd5b85356001600160401b038082111561236957600080fd5b61237589838a01612069565b9650602088013591508082111561238b57600080fd5b61239789838a0161201e565b909650945060408801359150808211156123b057600080fd5b506123bd8882890161201e565b969995985093965092949392505050565b6000602082840312156123e057600080fd5b5035919050565b6000806000806000606086880312156123ff57600080fd5b8535945060208601356001600160401b038082111561238b57600080fd5b6000806000806000806080878903121561243657600080fd5b8635955060208701356001600160401b038082111561245457600080fd5b6124608a838b01612069565b9650604089013591508082111561247657600080fd5b6124828a838b0161201e565b9096509450606089013591508082111561249b57600080fd5b506124a889828a0161201e565b979a9699509497509295939492505050565b600080600080600080600060a0888a0312156124d557600080fd5b8735965060208801356001600160401b03808211156124f357600080fd5b6124ff8b838c01612069565b975060408a0135965060608a013591508082111561251c57600080fd5b6125288b838c0161201e565b909650945060808a013591508082111561254157600080fd5b5061254e8a828b0161201e565b989b979a50959850939692959293505050565b8183526000602080850194508260005b8581101561259d576001600160a01b0361258a83612007565b1687529582019590820190600101612571565b509495945050505050565b81835260006020808501808196508560051b810191508460005b8781101561262b5782840389528135601e198836030181126125e357600080fd5b870180356001600160401b038111156125fb57600080fd5b80360389131561260a57600080fd5b6126178682898501612638565b9a87019a95505050908401906001016125c2565b5091979650505050505050565b81835281816020850137506000828201602090810191909152601f909101601f19169091010190565b60008151808452612679816020860160208601612c24565b601f01601f19169290920160200192915050565b60006126998283612b99565b604085526126ab604086018284612561565b9150506126bb6020840184612b99565b85830360208701528083526001600160fb1b038111156126da57600080fd5b60051b8082602085013760009201602001918252509392505050565b60008251612708818460208701612c24565b9190910192915050565b60008351612724818460208801612c24565b835190830190612738818360208801612c24565b01949350505050565b6001600160a01b038581168252841660208201526040810183905260806060820181905260009061277490830184612661565b9695505050505050565b604081526000612792604083018688612561565b8281036020840152611ed38185876125a8565b604080825283519082018190526000906020906060840190828701845b828110156127de578151845292840192908401906001016127c2565b50505092019290925292915050565b602081526000610f126020830184612661565b60208082526032908201527f4552433732313a207472616e7366657220746f206e6f6e20455243373231526560408201527131b2b4bb32b91034b6b83632b6b2b73a32b960711b606082015260800190565b60208082526035908201527f444546494241534b45542057414c4c45543a20455243323020544f4b454e204160408201527404d4f554e5453204e45454420544f204245203e203605c1b606082015260800190565b6020808252818101527f4f776e61626c653a2063616c6c6572206973206e6f7420746865206f776e6572604082015260600190565b60208082526031908201527f444546494241534b45543a204f4e4c59204e4654204f574e45522043414e204360408201527020a626102a2424a990232aa721aa24a7a760791b606082015260800190565b60208082526031908201527f4552433732313a207472616e736665722063616c6c6572206973206e6f74206f6040820152701ddb995c881b9bdc88185c1c1c9bdd9959607a1b606082015260800190565b60208082526048908201527f444546494241534b45543a2042524944474520454e434f4445442043414c4c5360408201527f20414e4420414444524553534553204d5553542048415645205448452053414d60608201526708a40988a9c8ea8960c31b608082015260a00190565b60208082526038908201527f444546494241534b45543a20414e20414d4f554e5420494e204554484552204f60408201527f5220455243323020544f4b454e53204953204e45454445440000000000000000606082015260800190565b60208082526039908201527f444546494241534b45543a204d49534d4154434820494e204c454e475448204260408201527f45545745454e20544f4b454e5320414e4420414d4f554e545300000000000000606082015260800190565b606081526000612ab9606083018861268d565b8281036020840152612acc818789612561565b90508281036040840152612ae18185876125a8565b98975050505050505050565b606081526000612b00606083018661268d565b6020830194909452506001600160a01b0391909116604090910152919050565b6000808335601e19843603018112612b3757600080fd5b8301803591506001600160401b03821115612b5157600080fd5b6020019150600581901b360382131561206257600080fd5b604051601f8201601f191681016001600160401b0381118282101715612b9157612b91612d18565b604052919050565b6000808335601e19843603018112612bb057600080fd5b83016020810192503590506001600160401b03811115612bcf57600080fd5b8060051b360383131561206257600080fd5b60008219821115612bf457612bf4612cd6565b500190565b600082612c0857612c08612cec565b500490565b600082821015612c1f57612c1f612cd6565b500390565b60005b83811015612c3f578181015183820152602001612c27565b83811115610e385750506000910152565b600181811c90821680612c6457607f821691505b6020821081141561207b57634e487b7160e01b600052602260045260246000fd5b600061ffff80831681811415612c9d57612c9d612cd6565b6001019392505050565b6000600019821415612cbb57612cbb612cd6565b5060010190565b600082612cd157612cd1612cec565b500690565b634e487b7160e01b600052601160045260246000fd5b634e487b7160e01b600052601260045260246000fd5b634e487b7160e01b600052603260045260246000fd5b634e487b7160e01b600052604160045260246000fd5b8015158114610fb157600080fd5b6001600160e01b031981168114610fb157600080fdfea2646970667358221220d9bb62f4deac1a614ae37f6c6dd48cd2a9469acdb65ac8dcc372ac828b130eaf64736f6c6343000806003360a060405234801561001057600080fd5b5033606081901b608052610b9a6100386000396000818160d0015261039b0152610b9a6000f3fe60806040526004361061002d5760003560e01c8063642c438c14610071578063d124b3b7146100a857600080fd5b3661006c57604080513381523460208201527f88a5966d370b9919b20f3e2c13ff65706f196a4e32cc2c12bf57088f88525874910160405180910390a1005b600080fd5b34801561007d57600080fd5b5061009161008c366004610885565b6100ca565b60405161009f929190610926565b60405180910390f35b3480156100b457600080fd5b506100c86100c33660046107f7565b610399565b005b606060007f00000000000000000000000000000000000000000000000000000000000000006001600160a01b0316331461011f5760405162461bcd60e51b8152600401610116906109a1565b60405180910390fd5b600061012b86806109fe565b905067ffffffffffffffff81111561014557610145610b4e565b60405190808252806020026020018201604052801561016e578160200160208202803683370190505b50905060005b61017e87806109fe565b90508161ffff16101561031657620186a061019c60208901896109fe565b8361ffff168181106101b0576101b0610b38565b602002919091013590506101c489806109fe565b8461ffff168181106101d8576101d8610b38565b90506020020160208101906101ed91906107dc565b6040516370a0823160e01b81523060048201526001600160a01b0391909116906370a082319060240160206040518083038186803b15801561022e57600080fd5b505afa158015610242573d6000803e3d6000fd5b505050506040513d601f19601f8201168201806040525081019061026691906108e1565b6102709190610ab1565b61027a9190610a8f565b828261ffff168151811061029057610290610b38565b60200260200101818152505061030485838361ffff16815181106102b6576102b6610b38565b60209081029190910101516102cb8a806109fe565b8561ffff168181106102df576102df610b38565b90506020020160208101906102f491906107dc565b6001600160a01b031691906104d1565b8061030e81610b00565b915050610174565b506000851561038d57620186a061032d8747610ab1565b6103379190610a8f565b9050846001600160a01b03168160405160006040518083038185875af1925050503d8060008114610384576040519150601f19603f3d011682016040523d82523d6000602084013e610389565b606091505b5050505b90969095509350505050565b7f00000000000000000000000000000000000000000000000000000000000000006001600160a01b031633146103e15760405162461bcd60e51b8152600401610116906109a1565b6000606060005b61ffff81168611156104c85786868261ffff1681811061040a5761040a610b38565b905060200201602081019061041f91906107dc565b6001600160a01b031685858361ffff1681811061043e5761043e610b38565b90506020028101906104509190610a48565b60405161045e9291906108fa565b600060405180830381855af49150503d8060008114610499576040519150601f19603f3d011682016040523d82523d6000602084013e61049e565b606091505b509093509150826104b6576040513d806000833e8082fd5b806104c081610b00565b9150506103e8565b50505050505050565b604080516001600160a01b038416602482015260448082018490528251808303909101815260649091019091526020810180516001600160e01b031663a9059cbb60e01b179052610523908490610528565b505050565b600061057d826040518060400160405280602081526020017f5361666545524332303a206c6f772d6c6576656c2063616c6c206661696c6564815250856001600160a01b03166105fa9092919063ffffffff16565b805190915015610523578080602001905181019061059b9190610863565b6105235760405162461bcd60e51b815260206004820152602a60248201527f5361666545524332303a204552433230206f7065726174696f6e20646964206e6044820152691bdd081cdd58d8d9595960b21b6064820152608401610116565b60606106098484600085610613565b90505b9392505050565b6060824710156106745760405162461bcd60e51b815260206004820152602660248201527f416464726573733a20696e73756666696369656e742062616c616e636520666f6044820152651c8818d85b1b60d21b6064820152608401610116565b843b6106c25760405162461bcd60e51b815260206004820152601d60248201527f416464726573733a2063616c6c20746f206e6f6e2d636f6e74726163740000006044820152606401610116565b600080866001600160a01b031685876040516106de919061090a565b60006040518083038185875af1925050503d806000811461071b576040519150601f19603f3d011682016040523d82523d6000602084013e610720565b606091505b509150915061073082828661073b565b979650505050505050565b6060831561074a57508161060c565b82511561075a5782518084602001fd5b8160405162461bcd60e51b8152600401610116919061096e565b80356001600160a01b038116811461078b57600080fd5b919050565b60008083601f8401126107a257600080fd5b50813567ffffffffffffffff8111156107ba57600080fd5b6020830191508360208260051b85010111156107d557600080fd5b9250929050565b6000602082840312156107ee57600080fd5b61060c82610774565b6000806000806040858703121561080d57600080fd5b843567ffffffffffffffff8082111561082557600080fd5b61083188838901610790565b9096509450602087013591508082111561084a57600080fd5b5061085787828801610790565b95989497509550505050565b60006020828403121561087557600080fd5b8151801515811461060c57600080fd5b60008060006060848603121561089a57600080fd5b833567ffffffffffffffff8111156108b157600080fd5b8401604081870312156108c357600080fd5b9250602084013591506108d860408501610774565b90509250925092565b6000602082840312156108f357600080fd5b5051919050565b8183823760009101908152919050565b6000825161091c818460208701610ad0565b9190910192915050565b604080825283519082018190526000906020906060840190828701845b8281101561095f57815184529284019290840190600101610943565b50505092019290925292915050565b602081526000825180602084015261098d816040850160208701610ad0565b601f01601f19169190910160400192915050565b6020808252603b908201527f57414c4c45543a204f4e4c592054484520444546494241534b455420434f4e5460408201527f524143542043414e2043414c4c20544849532046554e4354494f4e0000000000606082015260800190565b6000808335601e19843603018112610a1557600080fd5b83018035915067ffffffffffffffff821115610a3057600080fd5b6020019150600581901b36038213156107d557600080fd5b6000808335601e19843603018112610a5f57600080fd5b83018035915067ffffffffffffffff821115610a7a57600080fd5b6020019150368190038213156107d557600080fd5b600082610aac57634e487b7160e01b600052601260045260246000fd5b500490565b6000816000190483118215151615610acb57610acb610b22565b500290565b60005b83811015610aeb578181015183820152602001610ad3565b83811115610afa576000848401525b50505050565b600061ffff80831681811415610b1857610b18610b22565b6001019392505050565b634e487b7160e01b600052601160045260246000fd5b634e487b7160e01b600052603260045260246000fd5b634e487b7160e01b600052604160045260246000fdfea264697066735822122060807a9e97bf98eff0ea2ebbdc7515a4e985465deb3c61585cca300552d3be9664736f6c6343000806003368747470733a2f2f7777772e646566696261736b65742e6f72672f6170692f6765742d6e66742d6d657461646174612f",
  "linkReferences": {},
  "deployedLinkReferences": {}
}