{
  "_format": "hh-sol-artifact-1",
  "contractName": "IndexPool",
  "sourceName": "contracts/IndexPool.sol",
  "abi": [
    {
      "inputs": [],
      "stateMutability": "nonpayable",
      "type": "constructor"
    },
    {
      "anonymous": false,
      "inputs": [
        {
          "indexed": true,
          "internalType": "address",
          "name": "owner",
          "type": "address"
        },
        {
          "indexed": true,
          "internalType": "address",
          "name": "approved",
          "type": "address"
        },
        {
          "indexed": true,
          "internalType": "uint256",
          "name": "tokenId",
          "type": "uint256"
        }
      ],
      "name": "Approval",
      "type": "event"
    },
    {
      "anonymous": false,
      "inputs": [
        {
          "indexed": true,
          "internalType": "address",
          "name": "owner",
          "type": "address"
        },
        {
          "indexed": true,
          "internalType": "address",
          "name": "operator",
          "type": "address"
        },
        {
          "indexed": false,
          "internalType": "bool",
          "name": "approved",
          "type": "bool"
        }
      ],
      "name": "ApprovalForAll",
      "type": "event"
    },
    {
      "anonymous": false,
      "inputs": [
        {
          "indexed": false,
          "internalType": "uint256",
          "name": "nftId",
          "type": "uint256"
        },
        {
          "indexed": false,
          "internalType": "address[]",
          "name": "inputTokens",
          "type": "address[]"
        },
        {
          "indexed": false,
          "internalType": "uint256[]",
          "name": "inputAmounts",
          "type": "uint256[]"
        },
        {
          "indexed": false,
          "internalType": "uint256",
          "name": "ethAmount",
          "type": "uint256"
        }
      ],
      "name": "INDEXPOOL_DEPOSIT",
      "type": "event"
    },
    {
      "anonymous": false,
      "inputs": [
        {
          "indexed": false,
          "internalType": "uint256",
          "name": "nftId",
          "type": "uint256"
        },
        {
          "indexed": false,
          "internalType": "address",
          "name": "wallet",
          "type": "address"
        },
        {
          "indexed": false,
          "internalType": "address",
          "name": "nftOwner",
          "type": "address"
        }
      ],
      "name": "INDEXPOOL_MINT_NFT",
      "type": "event"
    },
    {
      "anonymous": false,
      "inputs": [
        {
          "indexed": false,
          "internalType": "uint256",
          "name": "nftId",
          "type": "uint256"
        },
        {
          "indexed": false,
          "internalType": "address[]",
          "name": "outputTokens",
          "type": "address[]"
        },
        {
          "indexed": false,
          "internalType": "uint256[]",
          "name": "outputAmounts",
          "type": "uint256[]"
        },
        {
          "indexed": false,
          "internalType": "uint256",
          "name": "ethAmount",
          "type": "uint256"
        }
      ],
      "name": "INDEXPOOL_WITHDRAW",
      "type": "event"
    },
    {
      "anonymous": false,
      "inputs": [
        {
          "indexed": true,
          "internalType": "address",
          "name": "previousOwner",
          "type": "address"
        },
        {
          "indexed": true,
          "internalType": "address",
          "name": "newOwner",
          "type": "address"
        }
      ],
      "name": "OwnershipTransferred",
      "type": "event"
    },
    {
      "anonymous": false,
      "inputs": [
        {
          "indexed": true,
          "internalType": "address",
          "name": "from",
          "type": "address"
        },
        {
          "indexed": true,
          "internalType": "address",
          "name": "to",
          "type": "address"
        },
        {
          "indexed": true,
          "internalType": "uint256",
          "name": "tokenId",
          "type": "uint256"
        }
      ],
      "name": "Transfer",
      "type": "event"
    },
    {
      "inputs": [
        {
          "internalType": "address",
          "name": "to",
          "type": "address"
        },
        {
          "internalType": "uint256",
          "name": "tokenId",
          "type": "uint256"
        }
      ],
      "name": "approve",
      "outputs": [],
      "stateMutability": "nonpayable",
      "type": "function"
    },
    {
      "inputs": [
        {
          "internalType": "address",
          "name": "owner",
          "type": "address"
        }
      ],
      "name": "balanceOf",
      "outputs": [
        {
          "internalType": "uint256",
          "name": "",
          "type": "uint256"
        }
      ],
      "stateMutability": "view",
      "type": "function"
    },
    {
      "inputs": [
        {
          "components": [
            {
              "internalType": "address[]",
              "name": "tokens",
              "type": "address[]"
            },
            {
              "internalType": "uint256[]",
              "name": "amounts",
              "type": "uint256[]"
            }
          ],
          "internalType": "struct IPDataTypes.TokenData",
          "name": "inputs",
          "type": "tuple"
        },
        {
          "internalType": "address[]",
          "name": "bridgeAddresses",
          "type": "address[]"
        },
        {
          "internalType": "bytes[]",
          "name": "bridgeEncodedCalls",
          "type": "bytes[]"
        }
      ],
      "name": "createPortfolio",
      "outputs": [],
      "stateMutability": "payable",
      "type": "function"
    },
    {
      "inputs": [
        {
          "internalType": "uint256",
          "name": "nftId",
          "type": "uint256"
        },
        {
          "components": [
            {
              "internalType": "address[]",
              "name": "tokens",
              "type": "address[]"
            },
            {
              "internalType": "uint256[]",
              "name": "amounts",
              "type": "uint256[]"
            }
          ],
          "internalType": "struct IPDataTypes.TokenData",
          "name": "inputs",
          "type": "tuple"
        },
        {
          "internalType": "address[]",
          "name": "bridgeAddresses",
          "type": "address[]"
        },
        {
          "internalType": "bytes[]",
          "name": "bridgeEncodedCalls",
          "type": "bytes[]"
        }
      ],
      "name": "depositPortfolio",
      "outputs": [],
      "stateMutability": "payable",
      "type": "function"
    },
    {
      "inputs": [
        {
          "internalType": "uint256",
          "name": "nftId",
          "type": "uint256"
        },
        {
          "internalType": "address[]",
          "name": "bridgeAddresses",
          "type": "address[]"
        },
        {
          "internalType": "bytes[]",
          "name": "bridgeEncodedCalls",
          "type": "bytes[]"
        }
      ],
      "name": "editPortfolio",
      "outputs": [],
      "stateMutability": "nonpayable",
      "type": "function"
    },
    {
      "inputs": [
        {
          "internalType": "uint256",
          "name": "tokenId",
          "type": "uint256"
        }
      ],
      "name": "getApproved",
      "outputs": [
        {
          "internalType": "address",
          "name": "",
          "type": "address"
        }
      ],
      "stateMutability": "view",
      "type": "function"
    },
    {
      "inputs": [
        {
          "internalType": "address",
          "name": "owner",
          "type": "address"
        },
        {
          "internalType": "address",
          "name": "operator",
          "type": "address"
        }
      ],
      "name": "isApprovedForAll",
      "outputs": [
        {
          "internalType": "bool",
          "name": "",
          "type": "bool"
        }
      ],
      "stateMutability": "view",
      "type": "function"
    },
    {
      "inputs": [],
      "name": "name",
      "outputs": [
        {
          "internalType": "string",
          "name": "",
          "type": "string"
        }
      ],
      "stateMutability": "view",
      "type": "function"
    },
    {
      "inputs": [],
      "name": "owner",
      "outputs": [
        {
          "internalType": "address",
          "name": "",
          "type": "address"
        }
      ],
      "stateMutability": "view",
      "type": "function"
    },
    {
      "inputs": [
        {
          "internalType": "uint256",
          "name": "tokenId",
          "type": "uint256"
        }
      ],
      "name": "ownerOf",
      "outputs": [
        {
          "internalType": "address",
          "name": "",
          "type": "address"
        }
      ],
      "stateMutability": "view",
      "type": "function"
    },
    {
      "inputs": [],
      "name": "renounceOwnership",
      "outputs": [],
      "stateMutability": "nonpayable",
      "type": "function"
    },
    {
      "inputs": [
        {
          "internalType": "address",
          "name": "from",
          "type": "address"
        },
        {
          "internalType": "address",
          "name": "to",
          "type": "address"
        },
        {
          "internalType": "uint256",
          "name": "tokenId",
          "type": "uint256"
        }
      ],
      "name": "safeTransferFrom",
      "outputs": [],
      "stateMutability": "nonpayable",
      "type": "function"
    },
    {
      "inputs": [
        {
          "internalType": "address",
          "name": "from",
          "type": "address"
        },
        {
          "internalType": "address",
          "name": "to",
          "type": "address"
        },
        {
          "internalType": "uint256",
          "name": "tokenId",
          "type": "uint256"
        },
        {
          "internalType": "bytes",
          "name": "_data",
          "type": "bytes"
        }
      ],
      "name": "safeTransferFrom",
      "outputs": [],
      "stateMutability": "nonpayable",
      "type": "function"
    },
    {
      "inputs": [
        {
          "internalType": "address",
          "name": "operator",
          "type": "address"
        },
        {
          "internalType": "bool",
          "name": "approved",
          "type": "bool"
        }
      ],
      "name": "setApprovalForAll",
      "outputs": [],
      "stateMutability": "nonpayable",
      "type": "function"
    },
    {
      "inputs": [
        {
          "internalType": "string",
          "name": "nftImageURI",
          "type": "string"
        }
      ],
      "name": "setBaseURI",
      "outputs": [],
      "stateMutability": "nonpayable",
      "type": "function"
    },
    {
      "inputs": [
        {
          "internalType": "bytes4",
          "name": "interfaceId",
          "type": "bytes4"
        }
      ],
      "name": "supportsInterface",
      "outputs": [
        {
          "internalType": "bool",
          "name": "",
          "type": "bool"
        }
      ],
      "stateMutability": "view",
      "type": "function"
    },
    {
      "inputs": [],
      "name": "symbol",
      "outputs": [
        {
          "internalType": "string",
          "name": "",
          "type": "string"
        }
      ],
      "stateMutability": "view",
      "type": "function"
    },
    {
      "inputs": [],
      "name": "tokenCounter",
      "outputs": [
        {
          "internalType": "uint256",
          "name": "",
          "type": "uint256"
        }
      ],
      "stateMutability": "view",
      "type": "function"
    },
    {
      "inputs": [
        {
          "internalType": "uint256",
          "name": "tokenId",
          "type": "uint256"
        }
      ],
      "name": "tokenURI",
      "outputs": [
        {
          "internalType": "string",
          "name": "",
          "type": "string"
        }
      ],
      "stateMutability": "view",
      "type": "function"
    },
    {
      "inputs": [
        {
          "internalType": "address",
          "name": "from",
          "type": "address"
        },
        {
          "internalType": "address",
          "name": "to",
          "type": "address"
        },
        {
          "internalType": "uint256",
          "name": "tokenId",
          "type": "uint256"
        }
      ],
      "name": "transferFrom",
      "outputs": [],
      "stateMutability": "nonpayable",
      "type": "function"
    },
    {
      "inputs": [
        {
          "internalType": "address",
          "name": "newOwner",
          "type": "address"
        }
      ],
      "name": "transferOwnership",
      "outputs": [],
      "stateMutability": "nonpayable",
      "type": "function"
    },
    {
      "inputs": [
        {
          "internalType": "uint256",
          "name": "nftId",
          "type": "uint256"
        }
      ],
      "name": "walletOf",
      "outputs": [
        {
          "internalType": "address",
          "name": "",
          "type": "address"
        }
      ],
      "stateMutability": "view",
      "type": "function"
    },
    {
      "inputs": [
        {
          "internalType": "uint256",
          "name": "nftId",
          "type": "uint256"
        },
        {
          "components": [
            {
              "internalType": "address[]",
              "name": "tokens",
              "type": "address[]"
            },
            {
              "internalType": "uint256[]",
              "name": "amounts",
              "type": "uint256[]"
            }
          ],
          "internalType": "struct IPDataTypes.TokenData",
          "name": "outputs",
          "type": "tuple"
        },
        {
          "internalType": "uint256",
          "name": "outputEthPercentage",
          "type": "uint256"
        },
        {
          "internalType": "address[]",
          "name": "bridgeAddresses",
          "type": "address[]"
        },
        {
          "internalType": "bytes[]",
          "name": "bridgeEncodedCalls",
          "type": "bytes[]"
        }
      ],
      "name": "withdrawPortfolio",
      "outputs": [],
      "stateMutability": "nonpayable",
      "type": "function"
    }
  ],
  "bytecode": "0x600060075560e0604052601d60a08190527f687474703a2f2f746573742d6172742e696e646578706f6f6c2e6f726700000060c090815262000045916009919062000170565b503480156200005357600080fd5b50604080518082018252600981526812539111561413d3d360ba1b602080830191825283518085019094526005845264125413919560da1b908401528151919291620000a29160009162000170565b508051620000b890600190602084019062000170565b505050620000d5620000cf6200011a60201b60201c565b6200011e565b6000604051620000e590620001ff565b604051809103906000f08015801562000102573d6000803e3d6000fd5b5060601b6001600160601b0319166080525062000261565b3390565b600680546001600160a01b038381166001600160a01b0319831681179093556040519116919082907f8be0079c531659141344cd1fd0a4f28419497f9722a3daafe3b4186f6b6457e090600090a35050565b8280546200017e9062000224565b90600052602060002090601f016020900481019282620001a25760008555620001ed565b82601f10620001bd57805160ff1916838001178555620001ed565b82800160010185558215620001ed579182015b82811115620001ed578251825591602001919060010190620001d0565b50620001fb9291506200020d565b5090565b610bb78062002f2d83390190565b5b80821115620001fb57600081556001016200020e565b600181811c908216806200023957607f821691505b602082108114156200025b57634e487b7160e01b600052602260045260246000fd5b50919050565b60805160601c612cad6200028060003960006112de0152612cad6000f3fe6080604052600436106101405760003560e01c80637804d8bd116100b6578063b88d4fde1161006f578063b88d4fde14610372578063c87b56dd14610392578063d082e381146103b2578063e0fa88e1146103c8578063e985e9c5146103fe578063f2fde38b1461044757600080fd5b80637804d8bd146102cc5780638da5cb5b146102ec57806391249f201461030a57806395d89b411461031d578063a22cb46514610332578063ad97faa41461035257600080fd5b806342842e0e1161010857806342842e0e1461021657806355f804b31461023657806362e33556146102565780636352211e1461026957806370a0823114610289578063715018a6146102b757600080fd5b806301ffc9a71461014557806306fdde031461017a578063081812fc1461019c578063095ea7b3146101d457806323b872dd146101f6575b600080fd5b34801561015157600080fd5b506101656101603660046121c6565b610467565b60405190151581526020015b60405180910390f35b34801561018657600080fd5b5061018f6104b9565b6040516101719190612679565b3480156101a857600080fd5b506101bc6101b73660046122dc565b61054b565b6040516001600160a01b039091168152602001610171565b3480156101e057600080fd5b506101f46101ef3660046120cb565b6105e5565b005b34801561020257600080fd5b506101f4610211366004611fdd565b6106fb565b34801561022257600080fd5b506101f4610231366004611fdd565b61072c565b34801561024257600080fd5b506101f4610251366004612200565b610747565b6101f4610264366004612248565b610788565b34801561027557600080fd5b506101bc6102843660046122dc565b6108c8565b34801561029557600080fd5b506102a96102a4366004611f8f565b61093f565b604051908152602001610171565b3480156102c357600080fd5b506101f46109c6565b3480156102d857600080fd5b506101f46102e73660046123c8565b6109fc565b3480156102f857600080fd5b506006546001600160a01b03166101bc565b6101f461031836600461232b565b610b6b565b34801561032957600080fd5b5061018f610cd9565b34801561033e57600080fd5b506101f461034d366004612094565b610ce8565b34801561035e57600080fd5b506101f461036d3660046122f5565b610dad565b34801561037e57600080fd5b506101f461038d366004612019565b610e23565b34801561039e57600080fd5b5061018f6103ad3660046122dc565b610e5b565b3480156103be57600080fd5b506102a960075481565b3480156103d457600080fd5b506101bc6103e33660046122dc565b6000908152600860205260409020546001600160a01b031690565b34801561040a57600080fd5b50610165610419366004611faa565b6001600160a01b03918216600090815260056020908152604080832093909416825291909152205460ff1690565b34801561045357600080fd5b506101f4610462366004611f8f565b610f36565b60006001600160e01b031982166380ac58cd60e01b148061049857506001600160e01b03198216635b5e139f60e01b145b806104b357506301ffc9a760e01b6001600160e01b03198316145b92915050565b6060600080546104c890612b75565b80601f01602080910402602001604051908101604052809291908181526020018280546104f490612b75565b80156105415780601f1061051657610100808354040283529160200191610541565b820191906000526020600020905b81548152906001019060200180831161052457829003601f168201915b5050505050905090565b6000818152600260205260408120546001600160a01b03166105c95760405162461bcd60e51b815260206004820152602c60248201527f4552433732313a20617070726f76656420717565727920666f72206e6f6e657860448201526b34b9ba32b73a103a37b5b2b760a11b60648201526084015b60405180910390fd5b506000908152600460205260409020546001600160a01b031690565b60006105f0826108c8565b9050806001600160a01b0316836001600160a01b0316141561065e5760405162461bcd60e51b815260206004820152602160248201527f4552433732313a20617070726f76616c20746f2063757272656e74206f776e656044820152603960f91b60648201526084016105c0565b336001600160a01b038216148061067a575061067a8133610419565b6106ec5760405162461bcd60e51b815260206004820152603860248201527f4552433732313a20617070726f76652063616c6c6572206973206e6f74206f7760448201527f6e6572206e6f7220617070726f76656420666f7220616c6c000000000000000060648201526084016105c0565b6106f68383610fd1565b505050565b610705338261103f565b6107215760405162461bcd60e51b81526004016105c090612821565b6106f6838383611136565b6106f683838360405180602001604052806000815250610e23565b6006546001600160a01b031633146107715760405162461bcd60e51b81526004016105c09061278f565b8051610784906009906020840190611e25565b5050565b84346107976020830183612a45565b90506107a38380612a45565b9050146107c25760405162461bcd60e51b81526004016105c0906127c4565b60005b6107d26020840184612a45565b90508161ffff1610156108385760006107ee6020850185612a45565b8361ffff1681811061080257610802612c27565b90506020020135116108265760405162461bcd60e51b81526004016105c0906126de565b8061083081612baa565b9150506107c5565b5060006108486020840184612a45565b905011806108565750600081115b6108725760405162461bcd60e51b81526004016105c090612732565b858585858083146108955760405162461bcd60e51b81526004016105c0906128c2565b60006108a0336112d6565b90506108ad818d34611399565b6108ba818c8c8c8c6115a2565b505050505050505050505050565b6000818152600260205260408120546001600160a01b0316806104b35760405162461bcd60e51b815260206004820152602960248201527f4552433732313a206f776e657220717565727920666f72206e6f6e657869737460448201526832b73a103a37b5b2b760b91b60648201526084016105c0565b60006001600160a01b0382166109aa5760405162461bcd60e51b815260206004820152602a60248201527f4552433732313a2062616c616e636520717565727920666f7220746865207a65604482015269726f206164647265737360b01b60648201526084016105c0565b506001600160a01b031660009081526003602052604090205490565b6006546001600160a01b031633146109f05760405162461bcd60e51b81526004016105c09061278f565b6109fa600061162c565b565b8585610a0b6020830183612a45565b9050610a178380612a45565b905014610a365760405162461bcd60e51b81526004016105c0906127c4565b60005b610a466020840184612a45565b90508161ffff161015610aac576000610a626020850185612a45565b8361ffff16818110610a7657610a76612c27565b9050602002013511610a9a5760405162461bcd60e51b81526004016105c0906126de565b80610aa481612baa565b915050610a39565b506000610abc6020840184612a45565b90501180610aca5750600081115b610ae65760405162461bcd60e51b81526004016105c090612732565b85858585808314610b095760405162461bcd60e51b81526004016105c0906128c2565b8c610b13816108c8565b6001600160a01b0316336001600160a01b031614610b435760405162461bcd60e51b81526004016105c090612872565b610b508e8c8c8c8c6115a2565b610b5b8e8e8e61167e565b5050505050505050505050505050565b8434610b7a6020830183612a45565b9050610b868380612a45565b905014610ba55760405162461bcd60e51b81526004016105c0906127c4565b60005b610bb56020840184612a45565b90508161ffff161015610c1b576000610bd16020850185612a45565b8361ffff16818110610be557610be5612c27565b9050602002013511610c095760405162461bcd60e51b81526004016105c0906126de565b80610c1381612baa565b915050610ba8565b506000610c2b6020840184612a45565b90501180610c395750600081115b610c555760405162461bcd60e51b81526004016105c090612732565b85858585808314610c785760405162461bcd60e51b81526004016105c0906128c2565b8b610c82816108c8565b6001600160a01b0316336001600160a01b031614610cb25760405162461bcd60e51b81526004016105c090612872565b610cbd8d8d34611399565b610cca8d8c8c8c8c6115a2565b50505050505050505050505050565b6060600180546104c890612b75565b6001600160a01b038216331415610d415760405162461bcd60e51b815260206004820152601960248201527f4552433732313a20617070726f766520746f2063616c6c65720000000000000060448201526064016105c0565b3360008181526005602090815260408083206001600160a01b03871680855290835292819020805460ff191686151590811790915590519081529192917f17307eab39ab6107e8899845ad3d59bd9653f200f220920489ca2b5937696c31910160405180910390a35050565b83838383808314610dd05760405162461bcd60e51b81526004016105c0906128c2565b88610dda816108c8565b6001600160a01b0316336001600160a01b031614610e0a5760405162461bcd60e51b81526004016105c090612872565b610e178a8a8a8a8a6115a2565b50505050505050505050565b610e2d338361103f565b610e495760405162461bcd60e51b81526004016105c090612821565b610e5584848484611776565b50505050565b6000818152600260205260409020546060906001600160a01b0316610eda5760405162461bcd60e51b815260206004820152602f60248201527f4552433732314d657461646174613a2055524920717565727920666f72206e6f60448201526e3732bc34b9ba32b73a103a37b5b2b760891b60648201526084016105c0565b6000610ee46117a9565b90506000815111610f045760405180602001604052806000815250610f2f565b80610f0e846117b8565b604051602001610f1f92919061255d565b6040516020818303038152906040525b9392505050565b6006546001600160a01b03163314610f605760405162461bcd60e51b81526004016105c09061278f565b6001600160a01b038116610fc55760405162461bcd60e51b815260206004820152602660248201527f4f776e61626c653a206e6577206f776e657220697320746865207a65726f206160448201526564647265737360d01b60648201526084016105c0565b610fce8161162c565b50565b600081815260046020526040902080546001600160a01b0319166001600160a01b0384169081179091558190611006826108c8565b6001600160a01b03167f8c5be1e5ebec7d5bd14f71427d1e84f3dd0314c0f7b2291e5b200ac8c7c3b92560405160405180910390a45050565b6000818152600260205260408120546001600160a01b03166110b85760405162461bcd60e51b815260206004820152602c60248201527f4552433732313a206f70657261746f7220717565727920666f72206e6f6e657860448201526b34b9ba32b73a103a37b5b2b760a11b60648201526084016105c0565b60006110c3836108c8565b9050806001600160a01b0316846001600160a01b031614806110fe5750836001600160a01b03166110f38461054b565b6001600160a01b0316145b8061112e57506001600160a01b0380821660009081526005602090815260408083209388168352929052205460ff165b949350505050565b826001600160a01b0316611149826108c8565b6001600160a01b0316146111b15760405162461bcd60e51b815260206004820152602960248201527f4552433732313a207472616e73666572206f6620746f6b656e2074686174206960448201526839903737ba1037bbb760b91b60648201526084016105c0565b6001600160a01b0382166112135760405162461bcd60e51b8152602060048201526024808201527f4552433732313a207472616e7366657220746f20746865207a65726f206164646044820152637265737360e01b60648201526084016105c0565b61121e600082610fd1565b6001600160a01b0383166000908152600360205260408120805460019290611247908490612b32565b90915550506001600160a01b0382166000908152600360205260408120805460019290611275908490612b06565b909155505060008181526002602052604080822080546001600160a01b0319166001600160a01b0386811691821790925591518493918716917fddf252ad1be2c89b69c2b068fc378daa952ba7f163c4a11628f55a4df523b3ef91a4505050565b6000806113027f00000000000000000000000000000000000000000000000000000000000000006118b5565b60078054600081815260086020526040902080546001600160a01b0319166001600160a01b03851617905590549192509061133e906001612b06565b60075561134b8482611952565b604080518281526001600160a01b0384166020820152338183015290517f91bbc4d4f7268a4db47efea768c0709967d954cd23d1f665d584a46f5bd5bbff9181900360600190a19392505050565b60006113ad6006546001600160a01b031690565b905060006113bd6103e884612b1e565b6040519091506001600160a01b0383169082156108fc029083906000818181858888f193505050501580156113f6573d6000803e3d6000fd5b506000858152600860205260409020546001600160a01b0316806108fc61141d8487612b32565b6040518115909202916000818181858888f19350505050158015611445573d6000803e3d6000fd5b5060005b6114538680612a45565b90508161ffff161015611545576103e86114706020880188612a45565b8361ffff1681811061148457611484612c27565b905060200201356114959190612b1e565b92506114e96114a3886108c8565b85856114af8a80612a45565b8661ffff168181106114c3576114c3612c27565b90506020020160208101906114d89190611f8f565b6001600160a01b031692919061196c565b6115336114f5886108c8565b838561150460208b018b612a45565b8661ffff1681811061151857611518612c27565b905060200201356115299190612b32565b6114af8a80612a45565b8061153d81612baa565b915050611449565b507f356f157f81ec5e9051cbb488f4c5d657006f5e7fd1f808ce625a0aaf84d3f96d866115728780612a45565b61157f60208a018a612a45565b896040516115929695949392919061299e565b60405180910390a1505050505050565b6000858152600860205260408120546001600160a01b031660405163d124b3b760e01b815290915081906001600160a01b0382169063d124b3b7906115f19089908990899089906004016125c9565b600060405180830381600087803b15801561160b57600080fd5b505af115801561161f573d6000803e3d6000fd5b5050505050505050505050565b600680546001600160a01b038381166001600160a01b0319831681179093556040519116919082907f8be0079c531659141344cd1fd0a4f28419497f9722a3daafe3b4186f6b6457e090600090a35050565b60606000806116a2866000908152600860205260409020546001600160a01b031690565b9050806001600160a01b031663642c438c86866116be8a6108c8565b6040518463ffffffff1660e01b81526004016116dc9392919061292f565b600060405180830381600087803b1580156116f657600080fd5b505af115801561170a573d6000803e3d6000fd5b505050506040513d6000823e601f3d908101601f1916820160405261173291908101906120f5565b90935091507f99c0c4e2c6c721bfb193e62e772677bedb4978ef18565c1075866cb848b26784866117638780612a45565b86866040516115929594939291906129df565b611781848484611136565b61178d848484846119c6565b610e555760405162461bcd60e51b81526004016105c09061268c565b6060600980546104c890612b75565b6060816117dc5750506040805180820190915260018152600360fc1b602082015290565b8160005b811561180657806117f081612bcc565b91506117ff9050600a83612b1e565b91506117e0565b6000816001600160401b0381111561182057611820612c3d565b6040519080825280601f01601f19166020018201604052801561184a576020820181803683370190505b5090505b841561112e5761185f600183612b32565b915061186c600a86612be7565b611877906030612b06565b60f81b81838151811061188c5761188c612c27565b60200101906001600160f81b031916908160001a9053506118ae600a86612b1e565b945061184e565b6000604051733d602d80600a3d3981f3363d3d373d3d3d363d7360601b81528260601b60148201526e5af43d82803e903d91602b57fd5bf360881b60288201526037816000f09150506001600160a01b03811661194d5760405162461bcd60e51b8152602060048201526016602482015275115490cc4c4d8dce8818dc99585d194819985a5b195960521b60448201526064016105c0565b919050565b610784828260405180602001604052806000815250611ad3565b604080516001600160a01b0385811660248301528416604482015260648082018490528251808303909101815260849091019091526020810180516001600160e01b03166323b872dd60e01b179052610e55908590611b06565b60006001600160a01b0384163b15611ac857604051630a85bd0160e11b81526001600160a01b0385169063150b7a0290611a0a90339089908890889060040161258c565b602060405180830381600087803b158015611a2457600080fd5b505af1925050508015611a54575060408051601f3d908101601f19168201909252611a51918101906121e3565b60015b611aae573d808015611a82576040519150601f19603f3d011682016040523d82523d6000602084013e611a87565b606091505b508051611aa65760405162461bcd60e51b81526004016105c09061268c565b805181602001fd5b6001600160e01b031916630a85bd0160e11b14905061112e565b506001949350505050565b611add8383611bd8565b611aea60008484846119c6565b6106f65760405162461bcd60e51b81526004016105c09061268c565b6000611b5b826040518060400160405280602081526020017f5361666545524332303a206c6f772d6c6576656c2063616c6c206661696c6564815250856001600160a01b0316611d1a9092919063ffffffff16565b8051909150156106f65780806020019051810190611b7991906121a9565b6106f65760405162461bcd60e51b815260206004820152602a60248201527f5361666545524332303a204552433230206f7065726174696f6e20646964206e6044820152691bdd081cdd58d8d9595960b21b60648201526084016105c0565b6001600160a01b038216611c2e5760405162461bcd60e51b815260206004820181905260248201527f4552433732313a206d696e7420746f20746865207a65726f206164647265737360448201526064016105c0565b6000818152600260205260409020546001600160a01b031615611c935760405162461bcd60e51b815260206004820152601c60248201527f4552433732313a20746f6b656e20616c7265616479206d696e7465640000000060448201526064016105c0565b6001600160a01b0382166000908152600360205260408120805460019290611cbc908490612b06565b909155505060008181526002602052604080822080546001600160a01b0319166001600160a01b03861690811790915590518392907fddf252ad1be2c89b69c2b068fc378daa952ba7f163c4a11628f55a4df523b3ef908290a45050565b606061112e848460008585843b611d735760405162461bcd60e51b815260206004820152601d60248201527f416464726573733a2063616c6c20746f206e6f6e2d636f6e747261637400000060448201526064016105c0565b600080866001600160a01b03168587604051611d8f9190612541565b60006040518083038185875af1925050503d8060008114611dcc576040519150601f19603f3d011682016040523d82523d6000602084013e611dd1565b606091505b5091509150611de1828286611dec565b979650505050505050565b60608315611dfb575081610f2f565b825115611e0b5782518084602001fd5b8160405162461bcd60e51b81526004016105c09190612679565b828054611e3190612b75565b90600052602060002090601f016020900481019282611e535760008555611e99565b82601f10611e6c57805160ff1916838001178555611e99565b82800160010185558215611e99579182015b82811115611e99578251825591602001919060010190611e7e565b50611ea5929150611ea9565b5090565b5b80821115611ea55760008155600101611eaa565b60006001600160401b03831115611ed757611ed7612c3d565b611eea601f8401601f1916602001612a8e565b9050828152838383011115611efe57600080fd5b828260208301376000602084830101529392505050565b80356001600160a01b038116811461194d57600080fd5b60008083601f840112611f3e57600080fd5b5081356001600160401b03811115611f5557600080fd5b6020830191508360208260051b8501011115611f7057600080fd5b9250929050565b600060408284031215611f8957600080fd5b50919050565b600060208284031215611fa157600080fd5b610f2f82611f15565b60008060408385031215611fbd57600080fd5b611fc683611f15565b9150611fd460208401611f15565b90509250929050565b600080600060608486031215611ff257600080fd5b611ffb84611f15565b925061200960208501611f15565b9150604084013590509250925092565b6000806000806080858703121561202f57600080fd5b61203885611f15565b935061204660208601611f15565b92506040850135915060608501356001600160401b0381111561206857600080fd5b8501601f8101871361207957600080fd5b61208887823560208401611ebe565b91505092959194509250565b600080604083850312156120a757600080fd5b6120b083611f15565b915060208301356120c081612c53565b809150509250929050565b600080604083850312156120de57600080fd5b6120e783611f15565b946020939093013593505050565b6000806040838503121561210857600080fd5b82516001600160401b038082111561211f57600080fd5b818501915085601f83011261213357600080fd5b815160208282111561214757612147612c3d565b8160051b9250612158818401612a8e565b8281528181019085830185870184018b101561217357600080fd5b600096505b84871015612196578051835260019690960195918301918301612178565b5097909101519698969750505050505050565b6000602082840312156121bb57600080fd5b8151610f2f81612c53565b6000602082840312156121d857600080fd5b8135610f2f81612c61565b6000602082840312156121f557600080fd5b8151610f2f81612c61565b60006020828403121561221257600080fd5b81356001600160401b0381111561222857600080fd5b8201601f8101841361223957600080fd5b61112e84823560208401611ebe565b60008060008060006060868803121561226057600080fd5b85356001600160401b038082111561227757600080fd5b61228389838a01611f77565b9650602088013591508082111561229957600080fd5b6122a589838a01611f2c565b909650945060408801359150808211156122be57600080fd5b506122cb88828901611f2c565b969995985093965092949392505050565b6000602082840312156122ee57600080fd5b5035919050565b60008060008060006060868803121561230d57600080fd5b8535945060208601356001600160401b038082111561229957600080fd5b6000806000806000806080878903121561234457600080fd5b8635955060208701356001600160401b038082111561236257600080fd5b61236e8a838b01611f77565b9650604089013591508082111561238457600080fd5b6123908a838b01611f2c565b909650945060608901359150808211156123a957600080fd5b506123b689828a01611f2c565b979a9699509497509295939492505050565b600080600080600080600060a0888a0312156123e357600080fd5b8735965060208801356001600160401b038082111561240157600080fd5b61240d8b838c01611f77565b975060408a0135965060608a013591508082111561242a57600080fd5b6124368b838c01611f2c565b909650945060808a013591508082111561244f57600080fd5b5061245c8a828b01611f2c565b989b979a50959850939692959293505050565b8183526000602080850194508260005b858110156124ab576001600160a01b0361249883611f15565b168752958201959082019060010161247f565b509495945050505050565b81835260006001600160fb1b038311156124cf57600080fd5b8260051b8083602087013760009401602001938452509192915050565b81835281816020850137506000828201602090810191909152601f909101601f19169091010190565b6000815180845261252d816020860160208601612b49565b601f01601f19169290920160200192915050565b60008251612553818460208701612b49565b9190910192915050565b6000835161256f818460208801612b49565b835190830190612583818360208801612b49565b01949350505050565b6001600160a01b03858116825284166020820152604081018390526080606082018190526000906125bf90830184612515565b9695505050505050565b6040815260006125dd60408301868861246f565b602083820381850152818583528183019050818660051b8401018760005b8881101561266957858303601f190184528135368b9003601e1901811261262157600080fd5b8a0180356001600160401b0381111561263957600080fd5b8036038c131561264857600080fd5b61265585828985016124ec565b9587019594505050908401906001016125fb565b50909a9950505050505050505050565b602081526000610f2f6020830184612515565b60208082526032908201527f4552433732313a207472616e7366657220746f206e6f6e20455243373231526560408201527131b2b4bb32b91034b6b83632b6b2b73a32b960711b606082015260800190565b60208082526034908201527f494e444558504f4f4c2057414c4c45543a20455243323020544f4b454e20414d60408201527304f554e5453204e45454420544f204245203e20360641b606082015260800190565b60208082526037908201527f494e444558504f4f4c3a20414e20414d4f554e5420494e204554484552204f5260408201527f20455243323020544f4b454e53204953204e4545444544000000000000000000606082015260800190565b6020808252818101527f4f776e61626c653a2063616c6c6572206973206e6f7420746865206f776e6572604082015260600190565b60208082526038908201527f494e444558504f4f4c3a204d49534d4154434820494e204c454e47544820424560408201527f545745454e20544f4b454e5320414e4420414d4f554e54530000000000000000606082015260800190565b60208082526031908201527f4552433732313a207472616e736665722063616c6c6572206973206e6f74206f6040820152701ddb995c881b9bdc88185c1c1c9bdd9959607a1b606082015260800190565b60208082526030908201527f494e444558504f4f4c3a204f4e4c59204e4654204f574e45522043414e20434160408201526f2626102a2424a990232aa721aa24a7a760811b606082015260800190565b60208082526047908201527f494e444558504f4f4c3a2042524944474520454e434f4445442043414c4c532060408201527f414e4420414444524553534553204d5553542048415645205448452053414d45606082015266040988a9c8ea8960cb1b608082015260a00190565b60608152600061293f8586612abe565b6040606085015261295460a08501828461246f565b9150506129646020870187612abe565b848303605f1901608086015261297b8382846124b6565b6020860197909752505050506001600160a01b0391909116604090910152919050565b8681526080602082015260006129b860808301878961246f565b82810360408401526129cb8186886124b6565b915050826060830152979650505050505050565b858152600060206080818401526129fa60808401878961246f565b838103604085015285518082528287019183019060005b81811015612a2d57835183529284019291840191600101612a11565b50508093505050508260608301529695505050505050565b6000808335601e19843603018112612a5c57600080fd5b8301803591506001600160401b03821115612a7657600080fd5b6020019150600581901b3603821315611f7057600080fd5b604051601f8201601f191681016001600160401b0381118282101715612ab657612ab6612c3d565b604052919050565b6000808335601e19843603018112612ad557600080fd5b83016020810192503590506001600160401b03811115612af457600080fd5b8060051b3603831315611f7057600080fd5b60008219821115612b1957612b19612bfb565b500190565b600082612b2d57612b2d612c11565b500490565b600082821015612b4457612b44612bfb565b500390565b60005b83811015612b64578181015183820152602001612b4c565b83811115610e555750506000910152565b600181811c90821680612b8957607f821691505b60208210811415611f8957634e487b7160e01b600052602260045260246000fd5b600061ffff80831681811415612bc257612bc2612bfb565b6001019392505050565b6000600019821415612be057612be0612bfb565b5060010190565b600082612bf657612bf6612c11565b500690565b634e487b7160e01b600052601160045260246000fd5b634e487b7160e01b600052601260045260246000fd5b634e487b7160e01b600052603260045260246000fd5b634e487b7160e01b600052604160045260246000fd5b8015158114610fce57600080fd5b6001600160e01b031981168114610fce57600080fdfea2646970667358221220297761f1e11e76a80a11e5ac6ce61097bebdcfaacad791163cf9746958938df364736f6c6343000806003360a060405234801561001057600080fd5b5033606081901b608052610b7f6100386000396000818160d001526103800152610b7f6000f3fe60806040526004361061002d5760003560e01c8063642c438c14610071578063d124b3b7146100a857600080fd5b3661006c57604080513381523460208201527f88a5966d370b9919b20f3e2c13ff65706f196a4e32cc2c12bf57088f88525874910160405180910390a1005b600080fd5b34801561007d57600080fd5b5061009161008c36600461086a565b6100ca565b60405161009f92919061090b565b60405180910390f35b3480156100b457600080fd5b506100c86100c33660046107dc565b61037e565b005b606060007f00000000000000000000000000000000000000000000000000000000000000006001600160a01b0316331461011f5760405162461bcd60e51b815260040161011690610986565b60405180910390fd5b600061012b86806109e3565b905067ffffffffffffffff81111561014557610145610b33565b60405190808252806020026020018201604052801561016e578160200160208202803683370190505b50905060005b61017e87806109e3565b90508161ffff16101561031657620186a061019c60208901896109e3565b8361ffff168181106101b0576101b0610b1d565b602002919091013590506101c489806109e3565b8461ffff168181106101d8576101d8610b1d565b90506020020160208101906101ed91906107c1565b6040516370a0823160e01b81523060048201526001600160a01b0391909116906370a082319060240160206040518083038186803b15801561022e57600080fd5b505afa158015610242573d6000803e3d6000fd5b505050506040513d601f19601f8201168201806040525081019061026691906108c6565b6102709190610a96565b61027a9190610a74565b828261ffff168151811061029057610290610b1d565b60200260200101818152505061030485838361ffff16815181106102b6576102b6610b1d565b60209081029190910101516102cb8a806109e3565b8561ffff168181106102df576102df610b1d565b90506020020160208101906102f491906107c1565b6001600160a01b031691906104b6565b8061030e81610ae5565b915050610174565b506000851561037257620186a061032d8747610a96565b6103379190610a74565b6040519091506001600160a01b0386169082156108fc029083906000818181858888f19350505050158015610370573d6000803e3d6000fd5b505b90969095509350505050565b7f00000000000000000000000000000000000000000000000000000000000000006001600160a01b031633146103c65760405162461bcd60e51b815260040161011690610986565b6000606060005b61ffff81168611156104ad5786868261ffff168181106103ef576103ef610b1d565b905060200201602081019061040491906107c1565b6001600160a01b031685858361ffff1681811061042357610423610b1d565b90506020028101906104359190610a2d565b6040516104439291906108df565b600060405180830381855af49150503d806000811461047e576040519150601f19603f3d011682016040523d82523d6000602084013e610483565b606091505b5090935091508261049b576040513d806000833e8082fd5b806104a581610ae5565b9150506103cd565b50505050505050565b604080516001600160a01b038416602482015260448082018490528251808303909101815260649091019091526020810180516001600160e01b031663a9059cbb60e01b17905261050890849061050d565b505050565b6000610562826040518060400160405280602081526020017f5361666545524332303a206c6f772d6c6576656c2063616c6c206661696c6564815250856001600160a01b03166105df9092919063ffffffff16565b80519091501561050857808060200190518101906105809190610848565b6105085760405162461bcd60e51b815260206004820152602a60248201527f5361666545524332303a204552433230206f7065726174696f6e20646964206e6044820152691bdd081cdd58d8d9595960b21b6064820152608401610116565b60606105ee84846000856105f8565b90505b9392505050565b6060824710156106595760405162461bcd60e51b815260206004820152602660248201527f416464726573733a20696e73756666696369656e742062616c616e636520666f6044820152651c8818d85b1b60d21b6064820152608401610116565b843b6106a75760405162461bcd60e51b815260206004820152601d60248201527f416464726573733a2063616c6c20746f206e6f6e2d636f6e74726163740000006044820152606401610116565b600080866001600160a01b031685876040516106c391906108ef565b60006040518083038185875af1925050503d8060008114610700576040519150601f19603f3d011682016040523d82523d6000602084013e610705565b606091505b5091509150610715828286610720565b979650505050505050565b6060831561072f5750816105f1565b82511561073f5782518084602001fd5b8160405162461bcd60e51b81526004016101169190610953565b80356001600160a01b038116811461077057600080fd5b919050565b60008083601f84011261078757600080fd5b50813567ffffffffffffffff81111561079f57600080fd5b6020830191508360208260051b85010111156107ba57600080fd5b9250929050565b6000602082840312156107d357600080fd5b6105f182610759565b600080600080604085870312156107f257600080fd5b843567ffffffffffffffff8082111561080a57600080fd5b61081688838901610775565b9096509450602087013591508082111561082f57600080fd5b5061083c87828801610775565b95989497509550505050565b60006020828403121561085a57600080fd5b815180151581146105f157600080fd5b60008060006060848603121561087f57600080fd5b833567ffffffffffffffff81111561089657600080fd5b8401604081870312156108a857600080fd5b9250602084013591506108bd60408501610759565b90509250925092565b6000602082840312156108d857600080fd5b5051919050565b8183823760009101908152919050565b60008251610901818460208701610ab5565b9190910192915050565b604080825283519082018190526000906020906060840190828701845b8281101561094457815184529284019290840190600101610928565b50505092019290925292915050565b6020815260008251806020840152610972816040850160208701610ab5565b601f01601f19169190910160400192915050565b6020808252603a908201527f57414c4c45543a204f4e4c592054484520494e444558504f4f4c20434f4e545260408201527f4143542043414e2043414c4c20544849532046554e4354494f4e000000000000606082015260800190565b6000808335601e198436030181126109fa57600080fd5b83018035915067ffffffffffffffff821115610a1557600080fd5b6020019150600581901b36038213156107ba57600080fd5b6000808335601e19843603018112610a4457600080fd5b83018035915067ffffffffffffffff821115610a5f57600080fd5b6020019150368190038213156107ba57600080fd5b600082610a9157634e487b7160e01b600052601260045260246000fd5b500490565b6000816000190483118215151615610ab057610ab0610b07565b500290565b60005b83811015610ad0578181015183820152602001610ab8565b83811115610adf576000848401525b50505050565b600061ffff80831681811415610afd57610afd610b07565b6001019392505050565b634e487b7160e01b600052601160045260246000fd5b634e487b7160e01b600052603260045260246000fd5b634e487b7160e01b600052604160045260246000fdfea2646970667358221220bf9bd455f287fb4a851baf8fc0f4720ab23bfed1b6f36821691eb0ba722c24d664736f6c63430008060033",
  "linkReferences": {},
  "deployedLinkReferences": {}
}